:020000040800F2
:10000000080F0020B1010008CB3E0008FD3A0008AF
:10001000C93E0008A10B0008C54700080000000009
:100020000000000000000000000000003F42000847
:10003000DB0F0008000000003D420008D542000828
:10004000CB010008CB010008CB010008CB01000860
:10005000CB010008CB010008CB010008CB01000850
:10006000CB010008CB010008CB010008CB01000840
:10007000CB010008CB010008990F0008A50F00086C
:10008000CB010008CB010008CB010008CB01000820
:10009000CB010008CB010008CB010008CB01000810
:1000A000CB010008CB010008CB010008CB01000800
:1000B000CB010008CB010008CB010008CB010008F0
:1000C000CB010008CB010008CB010008CB010008E0
:1000D000CB0100083947000891470008CB01000810
:1000E0007D1F0008CB010008CB01000800F002F8DA
:1000F00000F04EF80AA090E8000C82448344AAF174
:100100000107DA4501D100F043F8AFF2090EBAE871
:100110000F0013F0010F18BFFB1A43F0010318473B
:10012000D0670000F0670000103A24BF78C878C19B
:10013000FAD8520724BF30C830C144BF04680C60ED
:10014000704700000023002400250026103A28BF35
:1001500078C1FBD8520728BF30C148BF0B60704739
:10016000642900F09F80752900F09C80732900F0BD
:100170008283002070471FB500F0BEFB0400002002
:10018000002104F021FE401C60601FBD10B510BDB1
:1001900000F006FC1146FFF7EEFF04F02BFB00F029
:1001A00032FC03B4FFF7F2FF03BC00F035FC0000A3
:1001B0000948804709480047FEE7FEE7FEE7FEE7FB
:1001C000FEE7FEE7FEE7FEE7FEE7FEE70448054937
:1001D000054A064B7047000051430008ED00000837
:1001E00008090020080F0020080B0020080B002041
:1001F000B2F120030AD5C2F1200320FA02F001FA7D
:1002000003F321FA02F140EA0300704721FA03F0F8
:100210004FF00001704700000FB47CB50C0009AA34
:10022000009001D02044401E084B7B446946019059
:10023000089800F0EEFA05461CB10020694600F06F
:10024000FBFA28467CBC5DF814FB00001506000094
:1002500070B50C460546012A05D02878800600D5E1
:10026000EA69002302E0012305E05B1C934202D20D
:10027000E05C0028F9D1A869E618C01AA861286ACC
:10028000184428622846AFF3008004E0D5E9012134
:1002900014F8010B9047B442F8D32846AFF300801E
:1002A00070BD00002DE9F041064600241068752954
:1002B000314616A510D0AFF30080002802DA404284
:1002C00013A507E031688A0701D512A502E04907A6
:1002D00004D511A5012401E0AFF3008000210A221A
:1002E00006F1240709E0B0FBF2FCB0FBF2F302FBDD
:1002F0001C00303078541846491C0028F3D123469E
:100300002A463046BDE8F04100F024BA0000000063
:100310002D0000002B000000200000002DE9F05F00
:10032000894604464FF0000ADFF874B1FB44C0F878
:1003300020A02046E1688847002874D0252806D0F0
:10034000D4E901219047206A401C2062F1E7002691
:100350005F462046E16888472028054607DB312DA7
:1003600005D2781910F8200C08B10643F1E7B00760
:1003700001D526F00406C4F81CA00027C4F818A074
:100380002A2D09D0284604F02EFA38B304EB87084A
:10039000303DC8F8185019E059F8041B204604EB0A
:1003A00087029161E1688847012F054618D1E0690D
:1003B000002820DA26F020061DE0D8F8180000EB0F
:1003C000800005EB40003038C8F818002046E1688E
:1003D0008847054604F007FA0028EED1012F0AD01D
:1003E0002E2D08D12046E16888477F1C0546022F44
:1003F00046F02006C4DBA069002803DA404246F03C
:100400000106A061F00701D026F010066C2D0BD07C
:10041000682D09D04C2D39D06A2D35D0742D35D0AA
:100420007A2D33D016E038E0E1682F462046884721
:10043000B842054609D16C2F26D04FF48060E168A0
:10044000064320468847054604E06C2F1AD04FF437
:10045000807006430DB3A5F14100192802D820355C
:1004600046F400664A462946204626604E46FFF777
:1004700077FE80B101280BD0F61D26F0070000F1B1
:10048000080956E74020E4E78020D8E70020D6E7B7
:1004900006F104094DE7284652E7206ABDE8F09FBF
:1004A000E864000070B5064600F050F9046805469F
:1004B00030460A22002100F0E2F92C6070BD401E97
:1004C000CAB210F8011F8A4202D00029F9D10020D7
:1004D000704730B505460B462A4613F8014B12F813
:1004E000010B08B1A042F8D01CB1002802D06D1C4D
:1004F000F1E7284630BD10B5431C02E010F8011B9F
:1005000071B18107FAD14FF0013202C88C1A8C43C5
:1005100014EAC211F9D0C01A0A0603D0C01E10BDD9
:10052000C01A10BD0A0401D0801E10BD0902FCD003
:10053000401E10BD032A40F2308010F0030C00F082
:10054000158011F8013BBCF1020F624498BF11F80D
:1005500001CB00F8013B38BF11F8013BA2F10402C6
:1005600098BF00F801CB38BF00F8013B11F003033E
:1005700000F02580083AC0F0088051F8043B083AA2
:1005800051F804CBA0E80810F5E7121D5CBF51F844
:10059000043B40F8043BAFF30080D20724BF11F8BE
:1005A000013B11F801CB48BF11F8012B24BF00F823
:1005B000013B00F801CB48BF00F8012B704710B594
:1005C000203AC0F00B80B1E81850203AA0E818504B
:1005D000B1E81850A0E81850BFF4F5AF5FEA027C0C
:1005E00024BFB1E81850A0E8185044BF18C918C07B
:1005F000BDE810405FEA827C24BF51F8043B40F81C
:10060000043B08BF7047D20728BF31F8023B48BF00
:1006100011F8012B28BF20F8023B48BF00F8012B3E
:1006200070474FF000020429C0F0128010F0030C54
:1006300000F01B80CCF1040CBCF1020F18BF00F8D5
:10064000012BA8BF20F8022BA1EB0C0100F00DB884
:100650005FEAC17C24BF00F8012B00F8012B48BFE2
:1006600000F8012B70474FF0000200B51346944686
:100670009646203922BFA0E80C50A0E80C50B1F1FA
:100680002001BFF4F7AF090728BFA0E80C5048BF0E
:100690000CC05DF804EB890028BF40F8042B08BFAC
:1006A000704748BF20F8022B11F0804F18BF00F8A8
:1006B000012B70474FF0013C50F8042B51F8043BDC
:1006C0009A4221D1A2EB0C03934313EACC1317D126
:1006D00050F8042B51F8043B9A4215D1A2EB0C03BD
:1006E000934313EACC130BD150F8042B51F8043B7D
:1006F0009A4209D1A2EB0C03934313EACC13DBD04B
:100700004FF00000704700BFD01A01BAB1FA81F172
:1007100001F0180122FA01F0CB40C1F12001DBB257
:10072000C0B2C01A2CFA01F3D11A914311EAC311D5
:10073000E6D17047704770477047000010B500F071
:10074000DBF8001D10BD00BF814600000048704767
:10075000A40800202DE9F0470D469946924604462C
:1007600000F124080168880604D5E06921F0100131
:10077000216000E00120A84201DD471B00E00027C6
:10078000A1697A1902EB0900081AA0612078C00655
:1007900002D42046AFF30080002608E0D4E901210E
:1007A0001AF806009047206A401C761C20624E45CD
:1007B000F4DB2078C0060AD52046AFF3008006E0BF
:1007C000D4E9012130209047206A401C2062381E65
:1007D000A7F10107F4DC07E0D4E9012118F80500CE
:1007E0009047206A401C2062281EA5F10105F3DC19
:1007F0002046AFF300802078000602D50220BDE835
:10080000F0870120FBE7000001694A1C02610878BB
:10081000704700B58FB0CDE9013100210591054940
:100820007944CDE9031011466846FFF777FD0FB014
:1008300000BD0000E5FFFFFF0A6802F8010B0A6037
:100840007047D1E900239A4202D2531C0B6010700A
:10085000704710B5436913B1AFF3008001E0FFF7B3
:10086000F7FC012010BD127800F124010A7000226B
:100870004A700122EDE711684FF0FF32E9E72DE9F8
:10088000F04791460F4680460446002614F8015B67
:100890002DB1FFF753FF0068405DC007F6D12B2D47
:1008A00002D02D2D18D0641E4A463946204600F04D
:1008B00027F827B13968A14201D1C7F800804FF06D
:1008C000020471050BD54042002803DDFFF73EFF0F
:1008D0000460A007BDE8F08746F48066E4E70028DE
:1008E000F8DAFFF733FF04606FF00040F2E7000032
:1008F00000487047A408002000487047C408002042
:100900002DE9F05F824615468B4600270AF1010467
:10091000B9460078302801D09DB113E014F8010BDE
:100920000127782803D0582801D045B10AE00DB13D
:10093000102D07D1002714F8010B102502E008251F
:1009400000E00A250026B0460EE005FB080005FB86
:1009500006F101271FFA80F801EB1046B6F5803F3B
:1009600000D3B94614F8010B294600F03EF80028E0
:10097000EBDABBF1000F05D00FB1641E00E0544666
:10098000CBF80040B9F1000F06D0FFF7DFFE0221DF
:100990000160C81EBDE8F09F48EA0640FAE77047CC
:1009A0007546FFF7A5FFAE4605006946534620F0A1
:1009B0000700854618B020B5FFF708FCBDE82040C9
:1009C0004FF000064FF000074FF000084FF0000B0B
:1009D00021F00701AC46ACE8C009ACE8C009ACE8BE
:1009E000C009ACE8C0098D4670473A2800D23038BB
:1009F00020F02002412A01D3A2F13700884201D31E
:100A00004FF0FF30704710B50446AFF3008020462A
:100A1000BDE81040FFF7C5BB01491820ABBEFEE79B
:100A20002600020010B50024084801F0EBFD0A2161
:100A3000064801F049FD18B9044801F06FFC84B282
:100A4000024801F03FFE204610BD0000800000205B
:100A500070B5002506462C4608E000BFFFF7E2FF10
:100A60000544052001F0C8FF641CE4B2B442F5D38C
:100A7000B5FBF6F070BD000010B50024084801F089
:100A8000C1FD0A21064801F01FFD18B9044801F014
:100A900045FC84B2024801F015FE204610BD00005E
:100AA000B000002070B5002506462C4608E000BFC7
:100AB000FFF7E2FF0544052001F09EFF641CE4B24D
:100AC000B442F5D3B5FBF6F070BD000070B5044636
:100AD00000688168C943C90717D1816821F0010105
:100AE000816002F069F905460AE000BF02F064F98E
:100AF000401B022804D920688068C043C00706D084
:100B000020688068C043C007F0D0002070BDA06A94
:100B100040F01000A062E06A40F00100E0620120B5
:100B200070BD0000F8B50026044600960068816894
:100B3000C943C9072DD0816841F001018160164881
:100B400016490068B0FBF1F000E0401E009000285C
:100B5000FBD102F031F9054616E000BF02F02CF996
:100B6000401B022810D920688068C043C0070BD002
:100B7000A06A40F01000A062E06A40F00100E0626C
:100B800084F824600120F8BD20688068C043C00755
:100B9000E4D10020F8BD00002800002040420F00F2
:100BA000FEE7000010B5044602F002FB0349B0FB6B
:100BB000F1F16143491EFDD210BD000000093D0066
:100BC0000148007870470000440000200148407848
:100BD0007047000044000020014800797047000081
:100BE00044000020014931F91000704752000020F4
:100BF00000B5164985B00020087048708870C8702C
:100C00000871C1F8090001F073FA684601F072FA40
:100C10000E490E3160B100204FEA0D0202EB400395
:100C20009B8821F81030401C0528F7DB05B000BD7B
:100C30001E20088032204880282088805020C880CC
:100C40004FF4FA60088103F0FBFAEFE7440000205C
:100C500001490120487170474400002001490120EA
:100C6000887170474400002001490120C871704715
:100C70004400002001490120087270474400002010
:100C800070B55D4D6879002618B16E71687850B105
:100C90006E70A87930B3AE71687858B1012813D05E
:100CA000022817D01EE0287810B100202870F0E745
:100CB0000120FBE7287818B101206870AE7011E0C0
:100CC00002206870EE700DE0A878401C00F0030070
:100CD000A87007E0E8780521401CB0FBF1F201FBA9
:100CE0001200E870E879444C0E3470B3EE71687805
:100CF00020B1012805D0022807D038E000F08CF898
:100D000035E0A87800F092F931E0E87840B10128A8
:100D10000DD0022812D0032818D004281DD026E0B8
:100D2000B4F90000642822DA401C20801DE0B4F9E8
:100D3000020064281BDA401D608016E0B4F904004C
:100D4000642814DA401DA0800FE010E0B4F906001A
:100D500064280CDA401CE08007E0B4F9080041F296
:100D60008831884203DA6430208103F069FA287AF6
:100D700000283FD02E72687802283BD1E878A8B1CD
:100D800001281AD0022823D003282CD0042831D1DE
:100D9000B4F9080000282DDD643800B22081002855
:100DA00000DA2681BDE8704003F04ABAB4F90000C9
:100DB00000281FDD401E2080F4E7B4F9020000285F
:100DC00018DD401F00B260800028EBDA6680E9E79A
:100DD000B4F9040000280DDD401F00B2A0800028F7
:100DE000E0DAA680DEE7B4F90600002802DD401E46
:100DF000E080D7E770BD0000440000200149087082
:100E00007047000044000020052802D2014A22F861
:100E100010107047520000200348017911B10021E1
:100E2000017170470121FBE74400002010B5282024
:100E3000FFF7B8FE2021044801F0B4FF08B10020FC
:100E400010BD012010BD0000000C01401FB5202284
:100E5000084B012120B100200092CDE9010104E0FE
:100E60000320CDE90021CDE902106946184601F0C2
:100E7000A9FE1FBD000C014070B50F4C0F4D01E0E5
:100E8000641E17D02021284601F08CFF0028F7D0DF
:100E90001E20FFF787FE20212C46284601F082FF06
:100EA000002806D02021204601F07CFF0028F9D13F
:100EB000012070BD002070BDA0860100000C014023
:100EC00070B5002425466006040EFFF7D5FF08B173
:100ED00044F001046D1CEDB2082DF4D3204670BD22
:100EE0002DE9FC41044600200090019000F040F8FC
:100EF000FFF79CFFA0B31C4E1C4F354601E06D1E52
:100F00002FD02021384601F04DFF0028F7D001E016
:100F1000761E26D02021384601F044FF0028F7D164
:100F200000256E46FFF7CCFF70556D1CEDB2052D08
:100F3000F8D39DF800509DF801309DF802209DF8EF
:100F40000310E818561806449DF80400864208D19C
:100F500025706370A270E17020710020BDE8FC81F3
:100F6000FFE70120FAE70000A0860100000C014025
:100F700010B50020FFF76AFF00222021054801F08C
:100F800016FF142001F038FDBDE810400120FFF7E6
:100F90005DBF0000000C0140014801F01DBC0000D5
:100FA000B4010020014801F017BC000070010020CE
:100FB00030B590F840500124AC40C56B6C600468BB
:100FC00063604368102B036803D099600068C260B7
:100FD00030BD9A600068C16030BD7047114A00287A
:100FE00011541DD0104B012806D002280BD0032825
:100FF00016D179B101220EE019B100224FF48051CF
:101000000BE00122FAE709B1012200E000224FF4CF
:10101000006102E000224FF48071184601F0C7BE63
:10102000704700004D000020000801400349095CA2
:1010300011B10021FFF7D2BF0121FBE74D000020D5
:101040002DE9F84F0125002108231FA2084600952D
:1010500003F0BBF8DFF880800024102708F118099E
:1010600008F1090A04EB440007EB8000C6B298F8C7
:101070000200844206D1082318A2314600200095C0
:1010800003F0A3F8009559F82420082331460A20DC
:1010900003F09BF8082312A231463C20009503F090
:1010A00094F81AF804004FF00803009508B10DA257
:1010B00000E00DA23146462003F087F8641C042CA2
:1010C000D0DBBDE8F88F0000446576696365204396
:1010D0006F6E74726F6C0000440000203E000000D0
:1010E0003A0000004F4E20004F4646002DE9FC5FBD
:1010F0000124002108234FA20846009403F065F85C
:1011000008234FA200214020009403F05EF8DFF88E
:10111000389100254FF00C0B09F1280A082609F137
:101120000E0700BF05EB85010BEB410000F0FF0847
:1011300099F80300854206D1082344A241460020C5
:10114000009403F042F800945AF825200823414601
:101150000A2003F03AF808233DA241462C200094CF
:1011600003F033F865B1032D1CD0012D2CD0022DD6
:101170003CD0042D4CD06D1C052DD3DBBDE8FC9F6D
:10118000CDE90064B7F9002002234146362002F081
:10119000E5FF08232FA241464620009403F015F8EE
:1011A0000125BFE7CDE90064B7F9062002234146D7
:1011B000362002F0D3FF082327A2414646200094A0
:1011C00003F003F80425ADE7CDE90064B7F9022088
:1011D00002234146362002F0C1FF08231EA24146E9
:1011E0004620009402F0F1FF02259BE7CDE9006460
:1011F000B7F9042002234146362002F0AFFF08234E
:1012000015A241464620009402F0DFFF032589E73E
:10121000CDE90064B7F9082004234146362002F0E6
:101220009DFF08230DA241465620009402F0CDFFF9
:10123000A4E700005468726573686F6C6400000076
:1012400056616C7565000000440000203E000000FF
:101250003A000000430000002500000070706D009F
:1012600010B54FF400710348FFF7DBF90249002085
:10127000088010BD980600202C0000202DE9F04FBA
:10128000ADF22C4D664967A0CDE9000168A36AA2C2
:101290004FF4007102A8FEF7BFFF72A00124CDE950
:1012A0000040002108237AA2084602F08EFF02F0D7
:1012B000AFFE0025DFF8EC91A8466B1C7AA2202136
:1012C0000DF58160FEF7A8FF08230DF58162194630
:1012D0000020009402F079FF02F09AFEFFF7C0FFB1
:1012E0004FF47A7001F088FB02A8FFF704F982B28C
:1012F00041F2883302A96F4802F0AFFB40F2DC50A4
:1013000001F07AFB42F20F764FF0000A0DF5027BF6
:10131000B9F800004F4668B34FF4967001F06CFBCB
:101320003F88B7F5007F01D340F2FF173A46624984
:1013300082A8FFF7FFF80BF807A060A182A8FFF7CB
:10134000C8F868B14FF00108FFF78AFF08235CA2D4
:1013500010210020009402F038FF02F059FE1DE039
:101360005AA182A8FFF7B5F810B1FFF779FF07E09F
:10137000FFF776FF0A2001F03FFB761EB6B2C7D218
:10138000082354A210210020009402F01EFF02F056
:101390003FFE40F6B8306D1C01F02EFB0A2D03DA3B
:1013A000B8F1000F89D002E0B8F1000F26D0082371
:1013B0004CA218210020009402F007FF02F028FE42
:1013C00001234DA2202182A8FEF726FF082382AA2E
:1013D00020210020009402F0F8FE02F019FE01988E
:1013E000FFF789F882B241F288333248019902F05E
:1013F00034FB01200DF22C4DBDE8F08F082342A2F2
:1014000018210020009402F0E0FE02F001FE4FF4EB
:101410007A7001F0F1FA02F059FD0020EAE70000CD
:101420002C6800086455356A5667314C39620000F3
:10143000746573740000000041542B4D5154545591
:101440005345524346473D302C312C222573222CE4
:10145000222573222C222573222C302C302C222280
:101460000D0A000041542B4D515454434F4E4E3DF4
:10147000302C226D717474732E6865636C6F7564A3
:10148000732E636F6D222C313838332C310D0A00E6
:10149000436F6E6E656374696E6720436C6F75642D
:1014A0002E2E2E002C0000205472793A2025642F15
:1014B00031300000E0000020980600204F4B000073
:1014C0005573657220636667204F4B004552524F3B
:1014D000520000005573657220636667206661697B
:1014E0006C656400436F6E6E656374696E67204D52
:1014F0005154542E2E2E0000436F6E6E205472797C
:101500003A2025642F350000436C6F756420636FAB
:101510006E6E656374206661696C6564000000002E
:1015200030B5A1B01CA000901EA320A2802101A86C
:10153000FEF772FE01240021082322A2084600942F
:1015400002F043FE02F064FD23A101A800F0BCFC00
:101550004FF4FA754FF00803009470B120A20821EF
:10156000002002F032FE02F053FD284601F044FA5A
:1015700002F0ACFC012021B030BD1DA208210020EA
:1015800002F023FE02F044FD284601F035FA02F095
:101590009DFC0020EFE700006A64373137373138AF
:1015A000000000006A696E676461000041542B43CB
:1015B000574A41503D222573222C222573220D0AC1
:1015C00000000000436F6E6E656374696E6720579C
:1015D0006946692E2E2E0000474F542049500000C6
:1015E0005769466920636F6E6E65637465640000B9
:1015F0005769466920636F6E6E6563742066616922
:101600006C656400F8B502F061FC01240021082338
:1016100043A20846009402F0D8FD02F0F9FC4FF412
:10162000FA76304601F0E8F940F2FF1240494148AD
:1016300002F0E8F9082340A219460020009402F0C5
:10164000C4FD02F0E5FC40A140A000F03DFC4FF0DD
:101650000803009408B13FA200E041A20821002045
:1016600002F0B3FD304601F0C7F902F0D1FC0823C7
:101670003FA210210020009402F0A7FD02F0C8FC58
:10168000002531A13FA000F01FFC38B108233FA284
:1016900010210020009402F098FD05E0C82001F020
:1016A000ABF96D1C032DECDB02F0B2FC08233BA26E
:1016B00018210020009402F088FD02F0A9FC22A16C
:1016C0003BA000F001FC4FF00803009408B13CA2DD
:1016D00000E03FA21821002002F077FD304601F023
:1016E0008BF902F095FC18A13EA000F0EDFB4FF045
:1016F0000803009408B13FA200E042A2202100208C
:1017000002F063FD304601F077F902F081FC4FF4FE
:10171000FA6001F071F9BDE8F84002F0D7BB0000B3
:101720004553503832363620496E69742E2E2E00BD
:1017300098060020E000002054657374696E6720ED
:1017400041542E2E2E0000004F4B000041540D0A34
:101750000000000041542074657374204F4B00005A
:1017600041542074657374206661696C656400007F
:1017700044697361626C696E67206563686F2E2EC1
:101780002E000000415445300D0A00004563686F8B
:101790002064697361626C65640000005365747451
:1017A000696E672053746174696F6E2E2E2E00006F
:1017B00041542B43574D4F44453D310D0A00000025
:1017C00053746174696F6E206D6F6465204F4B00B8
:1017D00053746174696F6E206D6F64652066616912
:1017E0006C65640041542B4357444843503D312CB1
:1017F000310D0A004448435020656E61626C656497
:10180000000000005365742044484350206661691D
:101810006C6564002DE9F04FADF20C4D002848D006
:10182000002946D08DE80E0003464FF4007422A232
:10183000214603A8FEF7F0FCFFF712FD03A8FEF710
:101840005AFE82B24FF47A6303A9234802F005F9E5
:1018500001F0B2FA0546214EA14640F2FF1B4FF0BF
:1018600000080DF5037A4FF4FA771DE03488C4B10F
:101870004C4500D35C462246194983A8FEF75AFE20
:101880000AF8048017A183A8FEF723FE20B10120E7
:101890000DF20C4DBDE8F08F13A183A8FEF719FEE1
:1018A00038B9012001F0A8F801F086FA401BB842CF
:1018B000DCD30020ECE7000041542B4D5154545030
:1018C00055423D302C222573222C222573222C25B3
:1018D000642C25640D0A0000E00000202C0000208C
:1018E000980600204F4B00004552524F5200000016
:1018F00070B5DAB00D460646034600913DA24FF49E
:10190000807101A8FEF788FC0124002108233FA272
:101910000846009402F059FC334640A2402141A8F9
:10192000FEF77AFC082341AA19460020009402F031
:101930004CFC2B463CA2202151A8FEF76DFC08234D
:1019400051AA10210020009402F03FFC02F060FB3D
:1019500037A101A800F0B8FA4FF47A754FF00803E8
:10196000009410B133A2182121E036A218210020E2
:1019700002F02BFC082338A220210020009402F062
:1019800024FC02F045FBC82001F036F828A101A88C
:1019900000F09AFA4FF008030094A8B125A218218C
:1019A000002002F012FC08232EA220210094002027
:1019B00002F00BFC02F02CFB284601F01DF802F0AF
:1019C00085FA01205AB070BD1EA21821002002F035
:1019D000FCFB082327A220210020009402F0F5FB45
:1019E00002F016FB284601F007F802F06FFA00201B
:1019F000E8E7000041542B4D5154545355423D30BB
:101A00002C222573222C25640D0A00005375627365
:101A100063726962696E672E2E2E0000546F7069C2
:101A2000633A202573000000516F533A202564006B
:101A30004F4B0000537562736372696265204F4BB0
:101A4000000000005375627363726962652066610D
:101A5000696C6564000000005265747279696E6794
:101A60002E2E2E0052657472792073756363657330
:101A7000730000005265747279206661696C656458
:101A8000000000002DE9F041A54FADF5906D3888BC
:101A90004FF4FF74A04203D83E88002E71D001E0BD
:101AA00040F2FF1632469F4980A8FEF743FD00250D
:101AB0003D809C489CA1057080A88555FEF709FDD6
:101AC00000285ED07B2180A8FEF7F9FC002858D0C2
:101AD000002211466E460BE07B2B02D07D2B02D0FC
:101AE00002E0521C00E0521E7354401C491C1AB103
:101AF00003780BB1A142EFDD7554002941D00024D9
:101B00008DA13046FEF7E5FCDFF840824FF48056A9
:101B100030B100223146404601F049F9012409E084
:101B20008BA16846FEF7D5FC20B101223146404624
:101B300001F03DF98BA16846FEF7CBFC8E4F4FF4C8
:101B4000007630B100223146384601F030F90124E8
:101B500009E08AA16846FEF7BCFC20B101223146AB
:101B6000384601F024F98BA16846FEF7B2FC4FF429
:101B7000006638B101223146404601F018F90124CF
:101B80000AE0C8E089A16846FEF7A3FC20B1002264
:101B90003146404601F00BF98AA16846FEF799FCF0
:101BA0004FF4807628B101223146404601F0FFF81B
:101BB0000AE089A16846FEF78CFC20B1002231467C
:101BC000404601F0F4F814B10120FFF717F987A19E
:101BD0006846FEF77EFC98B100F10A0400E0641C40
:101BE00020782028FBD00928F9D02046FEF75AFC9F
:101BF00010B92178302903D101B20020FFF704F990
:101C00007DA16846FEF765FC98B100F1090400E08B
:101C1000641C20782028FBD00928F9D02046FEF744
:101C200041FC10B92178302903D101B20320FFF71C
:101C3000EBF874A16846FEF74CFC98B100F10B0478
:101C400000E0641C20782028FBD00928F9D0204629
:101C5000FEF728FC10B92178302903D101B2012008
:101C6000FFF7D2F86AA16846FEF733FC98B100F19D
:101C70000A0400E0641C20782028FBD00928F9D051
:101C80002046FEF70FFC10B92178302903D101B2AC
:101C90000220FFF7B9F861A16846FEF71AFC98B177
:101CA00000F1090400E0641C20782028FBD00928FA
:101CB000F9D02046FEF7F6FB10B92178302903D180
:101CC00001B20420FFF7A0F857A16846FEF701FC17
:101CD00088B1801D06462221FEF7F1FB04000AD0E0
:101CE0002570334652A280210DF58060FEF794FAEC
:101CF0002220207008E001F05FF8034659A28021FD
:101D00000DF58060FEF788FA00231A460DF5806114
:101D100061A0FFF77FFD0DF5906DBDE8F08100003B
:101D20002C000020980600202B4D5154545355424E
:101D30005245435600000000226C65645F636F6E7D
:101D400074726F6C223A747275650000000801406D
:101D5000226C65645F636F6E74726F6C223A6661A9
:101D60006C73650022626565705F636F6E74726F7D
:101D70006C223A7472756500000C01402262656540
:101D8000705F636F6E74726F6C223A66616C73651C
:101D9000000000002277617465725F636F6E747279
:101DA0006F6C223A747275650000000022776174CE
:101DB00065725F636F6E74726F6C223A66616C73EA
:101DC000650000002266616E5F636F6E74726F6CF7
:101DD000223A7472756500002266616E5F636F6EF1
:101DE00074726F6C223A66616C7365002274685F6E
:101DF00074656D70223A00002274685F74686D2209
:101E00003A0000002274685F6C69676874223A00C7
:101E10002274685F736F696C223A000022636F322C
:101E20005F7468223A000000226964223A220000AE
:101E30007B226964223A222573222C22636F646517
:101E4000223A3230302C2264617461223A6E756C11
:101E50006C2C226D7367223A22737563636573730A
:101E6000227D00007B226964223A22256C75222C97
:101E700022636F6465223A3230302C2264617461CF
:101E8000223A6E756C6C2C226D7367223A22737540
:101E90006363657373227D00247379732F645535F2
:101EA0006A5667314C39622F746573742F74686990
:101EB0006E672F70726F70657274792F7365745FBF
:101EC0007265706C790000002DE9F04FADF5017D71
:101ED0008B4604464EF66025FFF7C2F92046FEF712
:101EE0000AFB82B2C8232146214801F0B6FD322008
:101EF00000F082FD1F4F4FF4007940F2FF180026DA
:101F0000EA4623E03888F0B1C82000F075FD3C882F
:101F10004C4500D34446224617496846FEF70AFB63
:101F20000AF80460BBF100000BD001466846FEF7DA
:101F3000D0FA30B1FFF794F901200DF5017DBDE82D
:101F4000F08FFFF78DF90A2000F056FD6D1EADB23F
:101F5000D8D23C884C4500D34446224606496846C0
:101F6000FEF7E8FA0DF80460FFF77AF90020E4E7DD
:101F7000E00000202C0000209806002010B54FF44F
:101F8000805000F013FE4FF4005000F00FFE4FF4AD
:101F9000804000F00BFEBDE810404FF4004000F020
:101FA00005BE72B6FEE7000006490020C86106487B
:101FB000016941F004010161016941F040010161E1
:101FC00070470000F801002000200240064A00216E
:101FD000D16106490A6942F002020A614861086952
:101FE00040F0400008617047F801002000200240E6
:101FF000044B0022DA61044A136943F001031361C0
:1020000001807047F801002000200240144800229F
:10201000C168CB06134904D5CA6942F00202CA61FD
:102020001022C3685B0705D5CB6943F00103CB6180
:1020300042F00402C369DB0707D0CB6943F0040315
:10204000CB61C16921F00101C161A2F58071013943
:1020500001D0C2607047C16921F00101C1617047C0
:1020600000200240F801002070B5054600F0A4FEF3
:102070000646114C09E0681C07D025B100F09CFE13
:10208000801BA84201D9032070BDE068C007F2D1CF
:10209000E068800601D52020E060E068C00605D435
:1020A000E069C00702D1E068400703D5FFF7AEFF43
:1020B000012070BD002070BD0020024030B50346F5
:1020C00000200A4D10240246995C48400021002857
:1020D00002DA85EA400000E04000491CC9B2082944
:1020E000F5D3521CA242EFD330BD0000B71DC1048E
:1020F0007047000010B5044608491422FEF75FFA45
:1021000007492068884205D12046FFF7D7FF21699B
:10211000814201D0002010BD012010BD00F801084F
:10212000A5A55A5AF0B585B00024054605270494A4
:1021300000F012FD0F4E0120CDE9026004A90094C9
:10214000684600F06BFC40B955F8242006EB84018A
:102150000023022000F0C0FC20B100F0B3FC0020FE
:1021600005B0F0BD641CBC42EED300F0ABFC012016
:10217000F6E7000000F801080148408870470000B9
:10218000340000200148C06870470000340000207F
:10219000074800214FF6FF72016041600172054857
:1021A000017042808280C2808160C16070470000FF
:1021B0009808002034000020174910B58A68521C86
:1021C0008A60164A0B78D0545B1CD8B20870092874
:1021D00021D310782C2819D15078E42816D1002367
:1021E0001846145C401C2344DBB20828F9DB107A43
:1021F00098420BD1C868401CC860508840BA88809B
:10220000908840BAC880D08840BA488000200870C2
:1022100010605060107210BD34000020980800203B
:10222000F8B50024009490F824202546012A12D005
:10223000012280F824204A681F23072A0DD206684D
:10224000776B521E02EB820293409F430B689340D0
:102250001F43776319E00220F8BD06680D2A0AD2F1
:10226000376BD21F02EB820293409F430B6893406F
:102270001F43376309E0F76A0D3A02EB820293408D
:102280009F430B6893401F43F7620A680723066861
:102290000A2A0AD3F7680A3A02EB420293409F43A4
:1022A0008B6893401F43F76008E0376902EB4202F6
:1022B00093409F438B6893401F4337610A68102AFD
:1022C00001D0112A20D1124B02689A4217D193688B
:1022D0001B0219D4936843F4000393600968102922
:1022E00012D10C490C4A0968B1FBF2F101EB8101F2
:1022F000490000E0491E00910029FBD104E0816AF9
:1023000041F020018162012480F824502046F8BD6C
:10231000002401402800002040420F000068C06CEB
:10232000704700002DE9F0414FF0000704003D46E2
:102330007ED0A06A002628B9E66284F82460204690
:1023400000F07EF82046FEF7C1FBA16AC90600D462
:1023500020B1A06A40F01000A06269E0A16A21F4F7
:10236000885141F00201A1626268E169237B0A435E
:1023700047EA43010A43A1684FF48077B94209D084
:10238000012907D05FF0000194F814C0BCF1010FDF
:1023900002D00AE03946F7E7F3B1A36A43F020031D
:1023A000A362E36A43F00103E3622368D3F804C045
:1023B0002CF4694C4CEA010CC3F804C021688B680A
:1023C000DFF870C003EA0C0313438B60A168B942C5
:1023D0000BD0012909D00CE0DFF85CC0A3690CEB3D
:1023E00043330B4343F40061DFE7218A0D05A5F574
:1023F00080152168CB6A23F470032B43CB622168DC
:1024000089680E4B1940914208D1E662A16A21F019
:10241000020141F00101A162BDE8F081A06A20F053
:10242000020040F01000A062E06A40F00100E062AB
:102430000120F1E7FDF7E1FF00E0FFFFFE0E1FFFC7
:1024400010B586B0002100910191029103911A4CC0
:1024500003681A4903221A48A34211D18B6943F435
:1024600000738B618B6903F4007304938B6943F0F1
:1024700008038B61896901F008010491022113E0CE
:10248000104CA34215D18B6943F480638B618B6937
:1024900003F4806304938B6943F008038B618969BB
:1024A00001F0080104910121CDE90012694600F014
:1024B00089FB06B010BD000000240140001002405E
:1024C000000C0140002801402DE9F84300270D468B
:1024D0000446009700F070FC804620688168C905BA
:1024E00008D5A06A40F02000A06284F82470012082
:1024F000BDE8F8834168C90503D4C06A10F4700FC1
:102500002AD0022000F0F6FC3B490968B1FBF0F646
:102510002068036939490B424FEA61014FEAA11271
:102520001FD1C3684FEA611C13EA0C0F19D103696C
:102530000B4225D1C068104222D1142023E0681C30
:102540000AD02DB100F038FCA0EB0800A84203D956
:1025500020680068800725D5206800688007EED5D0
:102560002DE003690B4202D1C168114206D0026915
:1025700023490A4206D1C068084203D1542002E030
:10258000292000E0FC204643009816E0681C11D08A
:102590002DB100F011FCA0EB0800A8420AD9009868
:1025A000B04207D2A06A40F00400A06284F8247010
:1025B00003209DE70098401C0090B042E6D32168BC
:1025C0006FF012000860A06A40F40070A0622068FA
:1025D0008068C0F3424007280CD1207B50B9A06A24
:1025E00020F48070A062A06AC00403D4A06A40F006
:1025F0000100A06200207BE72800002024499224EB
:102600004992240070B5044690F8240001280DD0AA
:10261000012084F824002046FEF784FA02004FF0DF
:10262000000005D084F82400104670BD022070BD63
:10263000A16A40F20123994341F48071A1621F4DC8
:1026400023681F49AB4218D10E6816F4702F14D0BE
:10265000A66A46F48016A6620E68760505D5A66AB7
:1026600026F4005646F48056A662A66AF6040AD5F9
:10267000E66A26F00606E66206E0A66A26F48016FA
:10268000A6625E68E9E7E06284F824006FF0020069
:10269000186020688368C3F34243072B05D1A84222
:1026A00008D1096811F4702F04D0816841F48011B9
:1026B0008160B9E7816841F4A001F9E70028014091
:1026C0000424014010B5044690F82400012807D0E6
:1026D000012084F824002046FEF7F8F910B107E045
:1026E000022010BDA16A21F4885141F00101A162CC
:1026F000002184F8241010BD10B590F8211000229C
:10270000022905D00421816380F82020012010BD1A
:1027100001680B6823F00E030B6001680B6823F05F
:1027200001030B6090F84030C46B012101FA03F300
:10273000636080F8211080F82020104610BD000052
:1027400010B590F821100024022903D004218163E0
:1027500001243DE001680A6822F00E020A60016867
:102760000A6822F001020A601A4A0168914201D106
:10277000012121E0174A1432914201D110211BE0BE
:10278000144A2832914201D1891515E0114A3C3290
:10279000914201D189140FE00E4A5032914202D188
:1027A0004FF4803108E00B4A6432914202D14FF479
:1027B000801101E04FF08071064A083A5160012112
:1027C00080F82110002180F82010416B01B188476A
:1027D000204610BD080002402DE9F05FC16B0C6877
:1027E00001680B68D0F840C0042202FA0CF2494D8F
:1027F000DFF824A1494E4A4FDFF828B1DFF828E17D
:1028000022422CD05A072AD50A68920603D40A68B5
:1028100022F004020A600168A94201D1042219E0F1
:10282000514501D1402215E0B14202D14FF48062FE
:1028300010E0B94202D14FF480420BE0594502D179
:102840004FF4802206E0714502D14FF4800201E08E
:102850004FF080622F4908394A60C16A3BE04FF06F
:10286000020808FA0CF818EA040F4FF000094FF0BC
:10287000010235D05FEA837832D50B689B0605D418
:102880000B6823F00A030B6080F821200168A9423D
:1028900001D1022219E0514501D1202215E0B142B7
:1028A00002D14FF4007210E0B94202D14FF400524D
:1028B0000BE0594502D14FF4003206E0714502D1D8
:1028C0004FF4001201E04FF00072124908394A60DB
:1028D00080F82090816A00291AD0BDE8F05F08478F
:1028E000082505FA0CF5254212D01B0710D50B68F8
:1028F00023F00E030B6090F84010C36B02FA01F155
:102900005960826380F8212080F82090016BE2E713
:10291000BDE8F09F080002401C0002403000024069
:1029200044000240580002406C00024030B528B319
:1029300008C8134914221944B1FBF2F18900C1639C
:1029400010498163022141771A6843F6F0718A4386
:10295000D0E900142143D0E902452C432143046906
:1029600021434469214384692143114319600021B3
:102970004163012242770177084630BD012030BD16
:10298000F8FFFDBF0000024070B5044690F820003B
:10299000002501280CD0012084F8200094F8216043
:1029A0000020012E06D084F820000225284670BDA4
:1029B000022070BD022684F82160A06320680668AA
:1029C00026F0010606602046FEF7F2FAE06A0028CB
:1029D0002068016802D041F00E0106E021F00401F8
:1029E00001602068016841F00A0101602068016807
:1029F00041F001010160D9E770B5044600F0DCF94F
:102A00000546601C02D004480078044400F0D4F964
:102A1000401BA042FAD370BD1C0000202DE9F047F6
:102A2000054626480F460126017E01290FD00121C7
:102A3000814601762868DFF888804CF250340228FD
:102A400008D0A2462046FFF70FFBA8B131E00220D4
:102A5000BDE8F0872046FFF707FB08BB0120FFF722
:102A6000A3FA2046FFF700FBD8F81010064621F025
:102A70000401C8F810101CE04FF0FF303860AC685B
:102A800011E02046FFF7A2FA5046FFF7EDFAD8F81A
:102A90001010060021F00201C8F8101001D03C60AF
:102AA00007E004F58064D5E9020100EB8120A04233
:102AB000E7D8002189F818103046C9E7F80100204E
:102AC000002002400348016941F0800101610020BB
:102AD00070470000002002402DE9F05F07461C48C7
:102AE00088460024017E15461E46012909D0012191
:102AF000814601764CF2503A5046FFF7B5FA18B1CC
:102B000022E00220BDE8F09F012F02D0022F00D06A
:102B10000427D346DFF83CA0220128463146FDF7C2
:102B200067FB81B208EB4400FFF762FA5846FFF7F3
:102B30009BFADAF8102022F00102CAF8102018B926
:102B4000641CE4B2BC42E7D3002289F81820D9E71C
:102B5000F801002000200240064900200A69120600
:102B600007D5054A4A60054A4A600969090600D541
:102B7000012070470020024023016745AB89EFCD5B
:102B8000B0F5805F0AD0B0F5005F09D0B0F5804F96
:102B900008D0B0F5004F07D1FEF76CB8FEF758B873
:102BA000FEF75CB8FEF760B870470000044910B546
:102BB0000A68024202D00860FFF7E2FF10BD000081
:102BC000140401402DE9F84FDFF8B8910024A9F171
:102BD000040B23460F2709F1040AABF1040EC9E0E8
:102BE0000125A5402A40AA427DD1674ED1F804C0F4
:102BF000ACEB0608B44532D014DCBCF1030F3AD07C
:102C000009DCBCF1000F2AD0BCF1010F1CD0BCF1D3
:102C1000020F31D11DE0BCF1110F17D0BCF1120F22
:102C20002AD119E0B8F5881F19D006DCB8F5803F25
:102C300015D0B8F5801F1FD111E0B8F5001F0ED0D8
:102C4000B8F5041F18D10AE0CB6815E0CB681B1D4E
:102C500012E0CB6808330FE0CB680C330CE08B68D4
:102C60002BB1012B4FF0080303D0456104E004238E
:102C700002E0056100E00023FF2A01D8064601E0DA
:102C800000F104064FEA840501D9A5F12005D6F824
:102C9000008007FA05FC28EA0C0803FA05F548EA63
:102CA0000508C6F800804D68ED0062D5374DAE6965
:102CB00046F00106AE61AD6924F0030605F001059A
:102CC0000095334D06EB050CDCF80850A607360FCF
:102CD00007FA06F825EA0805DFF8B880404503D171
:102CE0004FF0000817E044E0DFF8AC80404502D127
:102CF0004FF001080FE0DFF8A480404502D14FF00B
:102D0000020808E0DFF89880404502D14FF0030840
:102D100001E04FF0040808FA06F848EA0508CCF884
:102D200008804D68D9F80060ED024D4601D5164384
:102D300000E096432E604D68DAF80060AD0255461B
:102D400001D5164300E096432E604D68DBF8006025
:102D5000AD035D4601D5164300E096432E604D68F5
:102D6000DEF80060ED03754601D5164300E096439A
:102D70002E60641C0D682A46E5407FF431AFBDE843
:102D8000F88F0000080401400000111000100240FC
:102D90000000014000080140000C0140001001400B
:102DA000001401408068084000D0012070470AB13B
:102DB000016170470904FBE7014880687047000023
:102DC0001C0000200248816802781144816070472D
:102DD0001C000020074810B5016841F01001016097
:102DE000032000F075F80F2000F006F800F024F83A
:102DF000002010BD0020024070B50D4D04464FF478
:102E00007A712878B1FBF0F00A490968B1FBF0F05B
:102E100000F0AAFB48B9102C07D200222146501E10
:102E200000F036F800206C6070BD012070BD00001D
:102E30001C000020280000200C4808B5816941F0E2
:102E400001018161816901F001010091C16941F0D5
:102E50008051C161C06900F0805000900448416811
:102E600021F0E06141F00071416008BD00100240B6
:102E700000000140002809DB00F01F020121914001
:102E80004009800000F1E020C0F800117047000008
:102E9000F0B40E4B1B680C46C3F30223C3F10705C5
:102EA000042D00D90425191D072901D2002300E0B3
:102EB000DB1E012606FA05F1491E214099409E407D
:102EC000761E16403143F0BC01F07DBC0CED00E0F5
:102ED000064900F0070208684FF6FF03184040EA71
:102EE0000220034A10430860704700000CED00E028
:102EF0000000FA0510B501460020234C012922D01C
:102F0000022939D010291DD161682268D20119D552
:102F10001E48C1F38342C903805C0AD561681B4A1D
:102F2000C1F34041921E515C194AB2FBF1F1484392
:102F300001E0184948436168490203D44000032175
:102F4000B0FBF1F010BD226AC2F30121012903D1C7
:102F5000920701D5C80310BD022905D1626A920704
:102F600002D549F6404010BD0329FCD121688903F0
:102F7000F9D54FF2244010BD00F030F96168C1F37B
:102F80008131491C4900DBE700100240084E00086F
:102F900000127A0000093D002DE9F843054600784B
:102FA000354CC00754D0E0690026C00008D4E06961
:102FB00040F08050E061E069012600F08050009010
:102FC0002E480168C90512D40168804641F4807119
:102FD0000160FFF7F1FE074605E000BFFFF7ECFEDA
:102FE000C01B642823D8D8F80000C005F6D5206A95
:102FF00010F4407021D0A98801F4407181421CD0A6
:10300000206A1F49012220F440700A6000220A60F1
:103010002062C00711D0FFF7CFFE074641F2883883
:1030200008E000BFFFF7C8FEC11B414502D90320DD
:10303000BDE8F883206A8007F4D5206A696820F427
:103040004070084320621EB1E06920F08050E061CA
:103050002878800705D56068A96820F440400843B7
:1030600060602878C00605D56068E96820F48000B3
:10307000084360600020DBE7001002400070004061
:10308000400442422DE9F0470F46050061D0434E0F
:10309000306800F00700B84209D2306820F007001D
:1030A00038433060306800F00700B84251D12868DA
:1030B0003B4C810712D5400703D5606840F4E060BF
:1030C00060602878000703D5606840F46050606055
:1030D0006068A96820F0F000084360602878C007A5
:1030E00028D06868012810D02168022810D08907EC
:1030F00000292EDA616821F0030101436160FFF7C6
:103100005BFE804641F288390DE021688903EFE7D4
:103110008901EDE7FFF750FEA0EB0801494502D910
:103120000320BDE8F0876068696800F00C00B0EB30
:10313000810FEFD1306800F00700B8420BD930683A
:1031400020F0070038433060306800F00700B842D4
:1031500001D00120E5E72878400705D56068E968D7
:1031600020F4E060084360602878000706D56068B6
:10317000296920F4605040EAC100606000F03EF828
:103180006168084AC1F30311515CC84006490860F0
:1031900006480068FFF730FE0020C2E7002002402A
:1031A00000100240184E00082800002020000020D7
:1031B00001480068704700002800002004480549C5
:1031C00000684968044AC1F30221515CC840704755
:1031D0002800002000100240284E0008044805493D
:1031E00000684968044AC1F3C221515CC840704775
:1031F0002800002000100240284E00080E4A5168A6
:103200000E4801F00C03042B11D0082B0FD10C48F1
:10321000C1F38343C903C05C0AD55168084AC1F3AE
:103220004041921E515C054A5043B0FBF1F070479B
:1032300004494843704700000010024000127A0021
:10324000F64D000800093D002DE9F84F040070D04C
:103250002078C04DC00749D06868C0F381000128BC
:1032600007D06868C0F38100022809D16868C003EC
:1032700006D52868800339D560680028E7D035E096
:103280006068B0F5803F0BD010B1B0F5A02F11D021
:10329000286820F480302860286820F4802002E02C
:1032A000286840F480302860606890B1FFF784FDA2
:1032B00006460AE0286840F480202860F0E700BF56
:1032C000FFF77AFD801B642873D828688003F7D540
:1032D0000CE0FFF771FD064605E000BFFFF76CFD4F
:1032E000801B6428F0D828688003F7D420789A4E91
:1032F00080074FF001094FF0000839D5686810F0D9
:103300000C0F07D06868C0F38100022809D16868F3
:10331000C00306D42868800714D52069012808D185
:1033200010E02069B0B1C6F80090FFF745FD0746F0
:1033300005E00AE1FFF740FDC01B0228C4D8286859
:103340008007F7D52868616920F0F80040EAC100DD
:1033500028600DE0C6F80080FFF72EFD074604E068
:10336000FFF72AFDC01B022823D828688007F7D45E
:10337000207800072CD57948A169D9B1C0F8009010
:10338000FFF71AFD074604E0FFF716FDC01B0228F1
:103390000FD8686A8007F7D571484FF4FA51006872
:1033A000B0FBF1F0009000BF0098411E0091FAD2EE
:1033B0000EE080E0C0F80080FFF7FEFC074604E066
:1033C000FFF7FAFCC01B022875D8686A8007F7D49B
:1033D0002078400760D5E8690027C00008D4E86974
:1033E00040F08050E861E869012700F080500090CB
:1033F0005C480168C90513D40168834641F48071B3
:103400000160FFF7D9FC824606E000BFFFF7D4FC5D
:10341000A0EB0A0064284ED8DBF80000C005F5D503
:10342000E06801280AD008B1052813D0286A20F0E6
:1034300001002862286A20F0040002E0286A40F0B7
:1034400001002862E06841F2883B98B1FFF7B4FCC4
:1034500082460BE0286A40F004002862EEE700BFD5
:10346000FFF7AAFCA0EB0A0159455AD8286A800741
:10347000F6D50CE0FFF7A0FC824605E0FFF79CFCC8
:10348000A0EB0A0159454CD8286A8007F6D41FB131
:10349000E86920F08050E861E06988B36968C1F3A9
:1034A0008101022944D00228C6F8608004D0FFF7C9
:1034B00083FC044638E034E0FFF77EFC074604E076
:1034C000FFF77AFCC01B02282BD828688001F7D4AC
:1034D000206AB0F5803F05D16868A16820F400300B
:1034E00008436860D4E908010843696821F474114D
:1034F00008436860C6F86090FFF75EFC044606E08B
:1035000025E000BFFFF758FC001B022809D82868F7
:103510008001F7D51BE000BFFFF74EFC001B02281F
:1035200002D90320BDE8F88F28688001F4D40EE0AA
:103530000128F7D06868226A00F48031914204D1F2
:10354000616A00F47010884201D00120EAE700208F
:10355000E8E70000001002400000424280044242BE
:10356000280000200070004010B5401EB0F1807FA0
:1035700001D3012010BD4FF0E02460610F216017DE
:1035800001F021F90020A06107202061002010BD7A
:10359000704710B504460068406994F84110C0F3C4
:1035A000C010212911D180B12068143050E8001FCB
:1035B00021F0800140E80012002AF5D1A06B08B18B
:1035C000FFF79AF8204600F06AFF2068406994F8F7
:1035D0004210C0F38010222911D180B1206814302C
:1035E00050E8001F21F0400140E80012002AF5D108
:1035F000E06B08B1FFF780F8204600F029FF0020BB
:1036000010BD7047F8B5016804460868CA684B6980
:1036100010F00F0F4FF0000559D003F0010602F42F
:103620009077374365D0C10705D0D10503D5616CCC
:1036300041F001016164410705D5D90703D0616CF0
:1036400041F002016164810705D5D90703D0616C9F
:1036500041F004016164010707D502F02001314304
:1036600003D0616C41F008016164616C00293AD0BB
:10367000800604D5900602D5204600F01EFF206883
:103680004069616CC0F38010090700D460B3204624
:1036900000F0DEFE20684069400621D52068143025
:1036A00050E8001F21F0400140E80012002AF5D147
:1036B000E06BA8B16D494163E06BFFF741F800286A
:1036C00011D0E06B416B01B0BDE8F04008478306C4
:1036D0000FD593060DD52046BDE8F84000F0EDBEAD
:1036E0002046FFF78EFFF8BD2046FFF78AFF65648E
:1036F000F8BD266B2023012E7CD1C6067AD5D606CE
:1037000078D508684868009048694FF0020640067E
:1037100040D5E16B086840680004000CE8D0A28D39
:103720008242E5D9E085886920282DD020680C30B8
:1037300050E8001F21F4807140E80012002AF5D102
:103740002068143050E8001F21F0010140E8001209
:10375000002AF5D12068143050E8001F21F0400104
:1037600040E80012002AF5D184F842302563206831
:103770000C3050E8001F21F0100140E80012002A30
:10378000F5D1E06BFEF7B8FF6663A08DE18D401ABE
:1037900081B22AE0A08DE18D401A81B2E08D00282F
:1037A000A6D00029A4D022680C3252E8000F20F4E1
:1037B000907042E80007002FF5D12068143050E8DF
:1037C000002F22F0010240E80027002FF5D184F8F5
:1037D0004230256320680C3050E8002F22F01002A0
:1037E00040E80023002BF5D166632046FFF7D0FEAA
:1037F000F8BDFFE705062BD5150629D594F841003D
:103800002128F5D1A068B0F5805F01D12069B0B161
:10381000206A411C2162216800784860E08C401ECB
:103820000004000CE084E3D12068C16821F080012D
:10383000C1602068C16841F04001C160D8E7206ADA
:103840000088C0F308004860206A801C2062E5E719
:103850004006CDD55006CBD5CA68204622F040029E
:10386000CA6084F8413000F048F9C1E753430008CA
:1038700070B5040004D094F84100002510B106E0B2
:10388000012070BD84F84050204600F023F8242029
:1038900084F841002068C16821F40051C1602046CD
:1038A00000F06CFE2068016921F4904101612068FC
:1038B000416921F02A0141612068C16841F4005149
:1038C000C1606564202084F8410084F8420065638B
:1038D000002070BDF0B585B00024009401940294DE
:1038E00003940646414F0368414902200322414D9B
:1038F000BB424ED18B6943F480438B618B6903F4E7
:10390000804304938B6943F004038B6189690392BC
:1039100001F0040104910102CDE900106946284636
:10392000FFF750F92815CDE90004694628460294AE
:10393000FFF748F9314D30488027C5E90004C5E953
:1039400002472C616C61AC612846EC61FEF7EEFF2A
:1039500008B1FEF726FBF5636E62284D2648443514
:10396000143801C5102091C5244845F81049443049
:103970006C61AC61EC61FEF7D9FF08B1FEF711FB99
:10398000B5630022012125206E62FFF781FA252010
:1039900028E01B4EB34227D1CB6943F40033CB61FF
:1039A000CB6903F4003304938B6943F004038B6108
:1039B0008969039201F0040104910421CDE900100A
:1039C00069462846FFF7FEF80820CDE9000469465D
:1039D00028460294FFF7F6F8002202212620FFF77E
:1039E00057FA2620FFF746FA05B0F0BD003801402F
:1039F0000010024000080140580002407001002001
:103A00000044004090F84230202B01D00220704743
:103A100021B11AB10023036300F00CBE01207047EE
:103A20000A49884211D1C08DA0F2FF1041420848D6
:103A30000180018819B1074A00880021115440F221
:103A4000FF1204490148FFF7DDBF7047E000002086
:103A50002C0000209806002070472DE9F84304460A
:103A600090F84100984616460D46202802D00220C4
:103A7000BDE8F88385B17EB100206064212084F820
:103A80004100FFF799F9A6848146E684A0682027C3
:103A9000B0F5805F02D003E00120E9E7206910B1B2
:103AA0002E4600250EE000260CE08021204600F086
:103AB00009FEA8B9C6B116F8010B21684860E08C70
:103AC000401EE084E08C4B464FF00002CDF80080B1
:103AD0000028EAD14FF04001204600F0F3FD40B14C
:103AE00084F841700320C3E735F8020BC0F30800E7
:103AF000E3E784F841700020BAE77047FEE7000072
:103B000070B501220E4D940321462846FFF74FF968
:103B10000122560331462846FFF749F900F048F8DC
:103B2000002221462846FFF742F900F041F8002222
:103B300031462846FFF73BF9BDE8704000F038B841
:103B40000010014070B50B4D4FF480440022214617
:103B50002846FFF72CF9012251032846FFF727F9E1
:103B600000F026F821462846BDE870400122FFF704
:103B70001EB900000010014070B50C4C01229103E9
:103B80002046FFF714F900F013F8012255032946E7
:103B90002046FFF70CF900F00BF8002229462046DA
:103BA000FFF705F9BDE8704000F002B800100140D1
:103BB0000320401EC0B2FCD27047000010B5C2B056
:103BC0000C4CCDE900010CA24FF4807102A82368CF
:103BD000FCF722FB401EFF280AD200231A4602A946
:103BE00013A0FDF717FE002802D02068401C2060BB
:103BF00042B010BD300000207B5C2269645C223A38
:103C00005C22256C755C225C2C5C22706172616D9B
:103C1000735C223A7B5C2225735C223A7B5C2276C1
:103C2000616C75655C223A25737D7D7D0000000026
:103C3000247379732F6455356A5667314C39622F76
:103C4000746573742F7468696E672F70726F706516
:103C50007274792F706F7374000000003EB50024F9
:103C600011480094019402940E4984600160047329
:103C70000475012505614FF460214460C161FEF7C0
:103C800051FB08B1FEF78DF90920CDE90005694621
:103C900002940548FEF7C4FA002801D0FEF781F926
:103CA0003EBD000000240140800000203EB50024FD
:103CB00011480094019402940E49846001600473D9
:103CC0000475012505614FF460214460C161FEF770
:103CD00029FB08B1FEF765F90820CDE90005694622
:103CE00002940548FEF79CFA002801D0FEF759F926
:103CF0003EBD000000280140B00000200D4808B57E
:103D0000416941F0010141614069002200F0010078
:103D1000009011460E20FFF7BBF80E20FFF7AAF81F
:103D2000002211460F20FFF7B3F8BDE808400F202E
:103D3000FFF7A0B8001002402DE9F04385B0002045
:103D400000900190029003903A48816941F010017F
:103D50008161816901F010010491816941F02001C4
:103D60008161816901F020010491816941F00401C0
:103D70008161816901F004010491816941F00801C8
:103D8000816180692C4F00F008004FF4C04404901A
:103D9000012221463846FFF70AF8DFF8A080012209
:103DA0004FF4C8514046FFF702F8DFF894904FF403
:103DB0000876012231464846FEF7F9FF00940124B7
:103DC0000325694638460194CDE90245FEF7FAFE1F
:103DD0004FF4704000901B48CDE901046946484605
:103DE000FEF7F0FE4FF41060CDE900040220CDE9AB
:103DF000020569464046FEF7E5FE2003CDE90004D2
:103E000069464046CDE90245FEF7DCFECDE9006497
:103E100069464846CDE90245FEF7D4FE0022114628
:103E20002820FFF735F82820FFF724F805B0BDE873
:103E3000F083000000100240001001400008014023
:103E4000000C01400000211010B50E4C0C480C2154
:103E500020604FF4E13060600020A060E060C4E9C1
:103E60000401A061E0612046FFF702FD08B1FEF702
:103E700098F82068C16841F01001C16010BD0000D1
:103E800000380140E000002010B50E4C0C480C2119
:103E900020604FF4165060600020A060E060C4E92C
:103EA0000401A061E0612046FFF7E2FC08B1FEF7E3
:103EB00078F82068C16841F02001C16010BD0000A1
:103EC0000044004028010020FEE7FEE730B4002156
:103ED000084B0A465FF0000003EBC004401CC0B270
:103EE00062548028F8D3491CC9B20829F2D330BCE7
:103EF00000F08EB81802002030B5CC0801F007039E
:103F000001259D40EBB2064D05EBC005C808285CB5
:103F10000AB1184302E063EA0000C043285530BDEF
:103F20001802002010B50021AE2000F06CF900212D
:103F3000084600F068F90021102000F064F9002123
:103F4000402000F060F90021812000F05CF90021A0
:103F5000CF2000F058F90021A12000F054F90021F1
:103F6000C82000F050F90021A62000F04CF90021F3
:103F7000A82000F048F900213F2000F044F900217A
:103F8000D32000F040F90021084600F03CF9002160
:103F9000D52000F038F90021802000F034F900210C
:103FA000D92000F030F90021F12000F02CF9002197
:103FB000DA2000F028F90021122000F024F9002175
:103FC000DB2000F020F90021302000F01CF9002156
:103FD000202000F018F90021022000F014F900213F
:103FE0008D2000F010F90021142000F00CF9FFF7EB
:103FF0006DFF0021BDE81040AF2000F004B902467B
:10400000012000E05043491EC9B2FBD270470000B6
:1040100070B5184E002400BF04F1B000C0B20021FA
:1040200000F0F1F80021084600F0EDF80021102022
:1040300000F0E9F8FFF764FD782000F021F9FFF7C0
:104040009BFD402000F01CF9FFF796FD5FF0000596
:1040500006EBC500005D00F013F9FFF78DFD6D1C48
:10406000EDB2802DF4D3FFF76DFD641CE4B2082C93
:10407000D2D370BD180200202DE9FC4F1C460E461D
:1040800082468B460190082B0DD0600700D001209E
:1040900000EBD40061084843C0B28146203AD0B258
:1040A000009000204BE00620F7E7082C13D00C2CE2
:1040B00018D0102C1BD0182C44D10098234900EBA9
:1040C000C00000BF01EB8001002711F80850E8078D
:1040D00012D00B9A13E000981D4900EB400001EB51
:1040E0004001F1E700981B4900EB4000EAE71A495C
:1040F000009801EB0011E7E70B9828B30022314646
:104100005046FFF7F9FE761C7F1C6D08FFB2F6B231
:10411000082FDCD30AF1010000F0FF0A082C0AD0B6
:104120000199AAEB0100B0EB540F04D10BF1080088
:104130008A4600F0FF0B08F101005E46C0B28046DF
:104140004845B2D3BDE8FC8F0122D8E7BC5A00082D
:10415000304E000858500008CC5400082DE9F84FA4
:104160000025DDE90A691F4692468B468046082EE7
:1041700000D1022500241CE0381B401EC1B20A20D9
:10418000FFF73DFFBAFBF0F00A21B0FBF1F201FBB3
:104190001200CDF8009080B13030C2B205EB56016C
:1041A00001FB0480C0B233465946FFF765FF641C2B
:1041B000E4B2BC42E0D3BDE8F88F05EB560101FB49
:1041C0000480C0B233463022EEE72DE9F8411E46A6
:1041D000154688460446079F0BE033464146204675
:1041E0000097FFF749FF082E0AD004EB5600C4B22F
:1041F0006D1C2A78A2F120005E28EED9BDE8F88176
:10420000A41DE4B2F4E770B50C460546FFF778FC50
:10421000782000F035F8FFF7AFFC0CB1402000E04B
:10422000002000F02DF8FFF7A7FC284600F028F842
:10423000FFF7A2FCBDE87040FFF784BC70477047F1
:1042400010B586B00C4800900C4A0020694600BFAB
:1042500032F8103001EB4004401CA3800528F7DB46
:10426000002004900846FDF729FF04906846FDF7FA
:1042700059FF06B010BD0000A5A55A5A52000020F3
:104280002DE9F041124F002405464FF480487E147A
:10429000280601D5012200E0002241463846FEF7FB
:1042A00086FDFFF785FC012231463846FEF77FFD8B
:1042B000FFF77EFC002231463846FEF778FD68069F
:1042C000641C050EE4B2082CE2D3BDE8F0810000C6
:1042D00000100140FEF776BD30B593B02821684646
:1042E000FCF7C1F914210AA8FCF7BDF9002501204B
:1042F0000F9510951195010412958DE823000490F7
:104300004FF4E010CDE90810022407946846FEF748
:104310009BFF08B172B6FEE70AA90F2081E83100C1
:104320004FF48060CDE90D0502210AA8FEF7AAFE30
:1043300008B172B6FEE74FF4004011900F940FA839
:10434000FEF72AFE002801D072B6FEE713B030BD9A
:10435000704710B5406A0021C185C184FFF751F94B
:1043600010BD70B5446A2068406994F84110C0F3EC
:10437000C0100025212904D118B1E584204600F0A1
:104380008EF82068406994F84210C0F3801022290A
:1043900004D118B1E585204600F05AF8606C40F071
:1043A000100060642046FFF72CF970BD10B501467F
:1043B000406A096809684FF0000289062ED4C28558
:1043C00001680C3151E8003F23F4807341E8003468
:1043D000002CF5D10168143151E8003F23F00103AE
:1043E00041E80034002CF5D10168143151E8003F58
:1043F00023F0400341E80034002CF5D1202180F85F
:104400004210016B012909D101680C3151E8003FCC
:1044100023F0100341E80034002CF5D14263016B16
:10442000012902D0FFF7FCFA10BD818DFFF7B0F82B
:1044300010BD10B5406A01214163016B012902D012
:10444000FFF70AFB10BD818D4908FFF7A1F810BDE9
:1044500001680C3151E8002F22F4907241E80023EA
:10446000002BF5D10168143151E8002F22F0010230
:1044700041E80023002BF5D1016B012909D1016826
:104480000C3151E8002F22F0100241E80023002BEC
:10449000F5D1202180F842100021016370470168A6
:1044A0000C3151E8002F22F0C00241E80023002B1C
:1044B000F5D1202180F84110704708B590F84210DE
:1044C000222901D0022008BD82684FF480539A420D
:1044D00001D1016921B1816A9A421BD04AB10AE037
:1044E0000268816A5268C2F308020A80816A891CE4
:1044F00008E0026972B10268526802F07F020A7035
:10450000816A491C8162C18D491E0904090CC1855B
:1045100003D01BE002685268F1E70168CA6822F024
:104520002002CA600168CA6822F48072CA60016809
:104530004A6922F001024A61202180F842100021DC
:104540004163026B012A03D0FFF76AFA002008BD1D
:10455000016301680C3151E8002F22F0100241E89C
:104560000023002BF5D101680A68D20602D50A683B
:1045700049680091818DFFF70BF8E7E770B50446B5
:1045800000680169E26821F4405111430161216929
:10459000A0680843616908432168CA6841F20C6356
:1045A0009A430243CA6020684169A26921F44071BC
:1045B000114341611E492068884202D1FEF70EFE78
:1045C00001E0FEF7FBFD00EBC00101EB00126068AB
:1045D00064218000B2FBF0F3B3FBF1F36FF0180637
:1045E0007343B2FBF0F5B2FBF0F605EB8305322323
:1045F00003EB0515B5FBF1F5B6FBF1F605F0F0059B
:1046000005EB0615B2FBF0F6B2FBF0F0B0FBF1F0F3
:104610006FF01802504306EB800003EB0010B0FB74
:10462000F1F0216800F00F002844886070BD0000A0
:104630000038014038B58162044682850020134667
:104640006064222284F84220E56B1B4AAA62E56B73
:104650001A4AEA62E56B1A4A2A63E26B50630A4619
:104660002168E06B091DFEF78FF92068016840683A
:104670000090206948B120680C3050E8001F41F4D8
:10468000807140E80012002AF5D12068143050E80B
:10469000001F41F0010140E80012002AF5D1206816
:1046A000143050E8001F41F0400140E80012002A99
:1046B000F5D1002038BD0000AD43000833440008A8
:1046C000634300082DE9F843984617460D46044613
:1046D000089E24E0701C22D0FEF76EFBA0EB0800C1
:1046E000B0421AD8CEB12068C168490717D5802DCD
:1046F00015D0402D13D00168C94309070FD40168B4
:104700000025406800902046FFF7A2FE0820606464
:1047100084F840500120BDE8F8830320FBE72068BF
:10472000006835EA000004D00020B842D2D0002052
:10473000F1E70120F9E7000038B5124C2068016864
:10474000C9061AD501680025406800902046FEF78A
:1047500020FFE06B0068406840F2FF12A0F2FF10FB
:10476000404280B2B0F5007F00D310460649088071
:1047700006490D540348FFF745F9BDE838400148A4
:10478000FEF740BFE00000202C000020980600202B
:104790000A4910B50868401C0860094800680268AA
:1047A000920606D540684A68C0B2521C4A60FDF7BE
:1047B00003FDBDE810400248FEF724BF14000020AE
:1047C00028010020FEE70907090E002804DB00F19C
:1047D000E02080F80014704700F00F0000F1E020A6
:1047E00080F8141D704730380A2801D20120704724
:1047F00000207047A8B00024FEF7ECFAFFF76CFD2C
:10480000FFF79AFAFFF77AFAFFF728FAFFF71CFB8F
:10481000FFF73AFBFFF74AFA00224FF41061FE4817
:10482000FEF7C5FAFFF77EFBFFF750FBFDF7B0FC84
:10483000FCF7DEF9FCF7E6FE4FF47A7506E0641C3F
:10484000E4B22846FEF7D8F8052C03D2FCF768FE40
:104850000028F4D0FCF712FD00285CD041F2883427
:104860002046FEF7C9F8FCF7FBFCFFF72FFB012100
:10487000EAA0FDF73DF800284ED00021F3A0FDF797
:1048800037F8FC494FF6FF7701F10C05002844D0BA
:10489000A3468A460A20FCF7DBF8642180B248432D
:1048A000A1EB10301FFA80F90C460A20FCF7FAF849
:1048B00080B264214843A4EB10301FFA80F8ED4821
:1048C0000C30FCF70DFBE8780090AB78EAA22021D1
:1048D00006A8FBF7A1FC687800902B78E6A22021BF
:1048E0000EA8FBF799FC4B46E5A2202116A8FBF782
:1048F00093FC4346E2A220211EA8FBF78DFCFDF7A6
:104900003BFC0646B84209D00346DDA2102102A8AE
:10491000FBF782FC05E0FEE7FEE7FEE700208DF8EE
:104920000800FEF749FADAF808105446411A5945CA
:104930001DD9FCF751F906A9E8B1D2A0FFF73EF95D
:104940000EA9D4A0FFF73AF916A9D5A0FFF736F9BA
:104950001EA9D5A0FFF732F99DF8080020B102A9E1
:10496000D3A000BFFFF72AF9FEF726FAA060FCF7F4
:1049700027F9B0B168E0D0A0FFF720F90EA9D1A0C7
:10498000FFF71CF916A9D2A0FFF718F91EA9D2A0AB
:10499000FFF714F99DF808000028E5D002A9D0A07F
:1049A000E0E70020FCF71EF90120FCF71BF9279037
:1049B0000220FCF717F926900320FCF713F9019069
:1049C0000420FCF70FF927990090894502DA4FF08F
:1049D000000201E04FF001024FF480518E48FEF7D3
:1049E000E6F92699207888450BDCC8B90122D10266
:1049F0008948FEF7DCF901202070FEF7DDF96060E0
:104A00000EE068B1FEF7D8F96168401AC82807D3EC
:104A100000224FF400618048FEF7C9F900202070A1
:104A20002A78019900208A4200DB0120BE4202D090
:104A300000998E4200DA08B1012200E000224FF412
:104A400080717548FEF7B3F9FCF71AF9FDF71AF80B
:104A5000FFF73CFAFCF7BAF840B1FCF7B7F80128C9
:104A60007ED0FCF7B3F802287BD0A1E1012400211D
:104A700008239CA208460094FFF7A7FBFCF7ACF8BC
:104A800000284FF0080300946CD098A20021322037
:104A9000FFF79BFB082397A2194600200094FFF71D
:104AA00094FBFCF78DF800284FF0080300947DD0AC
:104AB00092A208213220FFF788FB082391A210213F
:104AC00000200094FFF781FB0826CDE90064022353
:104AD0004A4610213220FFF741FB08238BA2102108
:104AE0004A200094FFF771FB082389A218210020B7
:104AF0000094FFF76AFBCDE90064022342461821C7
:104B00003220FFF72BFB082380A218214A200094B3
:104B1000FFF75BFB082380A2202100200094FFF711
:104B200054FBCDE90064AA78022320213220FFF74C
:104B300015FB08237AA220214A200094FFF745FBA9
:104B4000CDE90064EA78012320215020FFF706FB1D
:104B5000082374A2202158200094FFF736FB02E0BE
:104B600021E123E13FE008236FA2282100200094E7
:104B7000FFF72BFBCDE900642A780223282132209D
:104B8000FFF7ECFA082366A228214A200094FFF7D9
:104B90001CFBCDE900646A78012328215020FFF72F
:104BA000DDFA0823282159A2582000E01DE00094D6
:104BB000FFF70BFB08235EA2302100200094FFF7D3
:104BC00004FBFDF7D9FA0246B84210D0CDE90064E3
:104BD000042330213220FFF7C1FA0823302156A2E6
:104BE0005A20009408E055A250E756A261E7082336
:104BF00056A2302132200094FFF7E7FA082355A28D
:104C0000382100200094FFF7E0FA5348CDE9006412
:104C1000026805233821A1E000080140247379735C
:104C20002F6455356A5667314C39622F7465737439
:104C30002F7468696E672F70726F70657274792F48
:104C4000706F73742F7265706C79000024737973C0
:104C50002F6455356A5667314C39622F7465737409
:104C60002F7468696E672F70726F70657274792F18
:104C7000736574000000002025642E256400000088
:104C80002564000074656D706572617475726531BC
:104C90000000000068756D69646974793100000076
:104CA0006C69676874310000736F696C31000000D3
:104CB000636F32310000000074656D70657261745D
:104CC0007572650068756D6964697479000000002B
:104CD0006C69676874000000736F696C0000000005
:104CE000636F3200526567696F6E3A0052454749FB
:104CF0004F4E32004D6F64653A0000004D414E55F5
:104D0000414C00004C696768743A000025000000BF
:104D1000536F696C3A00000054656D703A000000F2
:104D20002E0000004300000048756D3A00000000AE
:104D3000434F323A2000000070706D0052454749E1
:104D40004F4E31004155544F000000002D2D2D2DA8
:104D500000000000493A0000140000200F20FFF777
:104D6000FDF9082315A2382132200094FFF72DFA0F
:104D70001348CDE900640268042338214120FFF77D
:104D8000EDF908230FA2382164200094FFF71DFAE3
:104D9000FDF7F8F9CDE900640246032338217320BA
:104DA000FFF7DCF904E0FCF74BF901E0FCF79EF9B2
:104DB000FFF72EF96420FDF71FFE6BE5523A000065
:104DC000180000204F3A000010B500290AD00878DA
:104DD000002807D005487844FBF76CFC002801D078
:104DE000002010BD0248784410BD00003A1B0000AE
:104DF000321B0000010202030405060708090A0B22
:104E00000C0D0E0F1010010202030405060708091D
:104E10000A0B0C0D0E0F1010000000000000000027
:104E20000102030406070809000000000102030450
:104E30000000000000000000002F0000000007003C
:104E4000070000147F147F1400242A7F2A120062B6
:104E50006408132300364955225000000503000062
:104E600000001C224100000041221C000014083EEA
:104E700008140008083E0808000000A060000008B0
:104E80000808080800006060000000201008040204
:104E9000003E5149453E0000427F400000426151C2
:104EA0004946002141454B31001814127F1000275C
:104EB00045454539003C4A4949300001710905031F
:104EC00000364949493600064949291E0000363650
:104ED00000000000563600000008142241000014B3
:104EE0001414141400004122140800020151090690
:104EF00000324959513E007C1211127C007F494911
:104F00004936003E41414122007F4141221C007F41
:104F100049494941007F09090901003E4149497A4F
:104F2000007F0808087F0000417F410000204041C9
:104F30003F01007F08142241007F40404040007F35
:104F4000020C027F007F0408107F003E4141413E79
:104F5000007F09090906003E4151215E007F0919C1
:104F600029460046494949310001017F0101003FBE
:104F70004040403F001F2040201F003F4038403F3E
:104F800000631408146300070870080700615149A2
:104F9000454300007F41410000552A552A55000035
:104FA00041417F00000402010204004040404040B3
:104FB000000001020400002054545478007F48444B
:104FC000443800384444442000384444487F003882
:104FD0005454541800087E0901020018A4A4A47CAB
:104FE000007F080404780000447D40000040808475
:104FF0007D00007F102844000000417F4000007CBD
:1050000004180478007C08040478003844444438C8
:1050100000FC242424180018242418FC007C080414
:10502000040800485454542000043F444020003CED
:105030004040207C001C2040201C003C4030403C74
:10504000004428102844001CA0A0A07C0044645404
:105050004C44141414141414000000000000000048
:10506000000000000000FC00000000000200000042
:10507000000C020C020000000000000090D0BCD028
:10508000BC900003000300001824FE448C000302BF
:10509000070201001824D8B04C800003000102016F
:1050A000C038E438E00001020201020208060000F4
:1050B0000000000000000000000000F804020000F2
:1050C00000010204000204F80000000402010000D4
:1050D0009060F86090000000010000002020FC209B
:1050E0002000000001000000000000000000080691
:1050F0000000000020202020200000000000000010
:105100000000000000000002000000000080601CA1
:105110000200040300000000F8040404F800010287
:10512000020201000008FC0000000002030200006F
:1051300018844424180003020202020008042424F4
:10514000D80001020202010040B088FC800000008B
:10515000000302003C242424C400010202020100D6
:10516000F824242CC0000102020201000C04E41CFB
:105170000400000003000000D8242424D800010209
:105180000202010038444444F80000030202010016
:1051900000001000000000000200000000002000DD
:1051A00000000000060000000020508804020000FB
:1051B000000001029090909090000000000000001C
:1051C0000002048850200002010000001804C424DA
:1051D0001800000002000000F804E494F800010246
:1051E0000202020000E09CF08000020300000302C3
:1051F00004FC2424D800020302020100F804040481
:105200000C0001020202010004FC0404F800020385
:105210000202010004FC24740C00020302020300D9
:1052200004FC24740C00020302000000F008044493
:10523000CC4000010202010004FC2020FC04020317
:10524000000003020404FC04040002020302020042
:10525000000404FC040406040403000004FC24D03D
:105260000C0402030200030204FC04000000020319
:1052700002020203FC3CC03CFC00030003000300EC
:1052800004FC30C4FC04020302000300F80404041C
:10529000F80001020202010004FC242418000203A9
:1052A00002000000F8848404F800010202070500EF
:1052B00004FC24649800020302000302182424441E
:1052C0008C000302020201000C04FC040C0000022A
:1052D0000302000004FC0000FC04000102020100C3
:1052E000047C80E01C040000030000001CE03CE0A3
:1052F0001C00000300030000049C609C04000203E7
:1053000000030200041CE01C040000020302000071
:105310000C84641C04000203020203000000FE026D
:105320000200000007040400000E30C0000000006E
:1053300000010200000202FE000000040407000059
:105340000004020400000000000000000000000053
:10535000000008080808080800000200000000001B
:10536000000000000040A0A0C000000102020302F3
:1053700004FC2020C00000030202010000C0202025
:10538000600000010202020000C02024FC000001B5
:105390000202030200C0A0A0C0000001020202003D
:1053A0000020F82424040002030202000040A0A010
:1053B000602000070A0A0A0404FC2020C00002033F
:1053C000020003020020E4000000000203020000CB
:1053D000000020E4000008080807000004FC80E04A
:1053E00020200203020003020404FC000000020269
:1053F00003020200E020E020C000030003000300DD
:1054000020E02020C00002030200030200C0202090
:10541000C00000010202010020E02020C000080FAF
:105420000A02010000C02020E0000001020A0F086B
:1054300020E0402020000203020000000060A0A045
:1054400020000002020203000020F82000000000FB
:105450000102020020E00020E0000001020203023D
:1054600020E0208060200000030100006080E080D8
:105470006000000300030000206080602000020341
:105480000003020020E020806020080807010000DF
:105490000020A0602000000203020200000020DEC5
:1054A0000200000000070400000000FF00000000F0
:1054B000000F00000002DE200000000407000000D2
:1054C00002010204040200000000000000000000CD
:1054D000000000000000000000000000000000F8D4
:1054E00000000000000000333000000000100C0637
:1054F000100C0600000000000000000040C07840D2
:10550000C0784000043F04043F040400007088FC9D
:1055100008300000001820FF211E0000F008F000F5
:10552000E018000000211C031E211E0000F0088866
:10553000700000001E2123241927211010160E00D0
:10554000000000000000000000000000000000E07B
:105550001804020000000007182040000002041890
:10556000E00000000040201807000000404080F0EC
:10557000804040000202010F01020200000000F022
:10558000000000000101011F0101010000000000F6
:105590000000000080B0700000000000000000006B
:1055A00000000000000101010101010100000000F4
:1055B000000000000030300000000000000000008B
:1055C00080601804006018060100000000E0100868
:1055D0000810E000000F102020100F00001010F83D
:1055E000000000000020203F20200000007008087C
:1055F00008887000003028242221300000300888FC
:10560000884830000018202020110E000000C02023
:1056100010F8000000070424243F240000F8088844
:10562000880808000019212020110E0000E01088D1
:1056300088180000000F112020110E000038080803
:10564000C83808000000003F000000000070880813
:1056500008887000001C222121221C0000E0100894
:105660000810E0000000312222110F00000000C0ED
:10567000C00000000000003030000000000000808A
:10568000000000000000806000000000000080407A
:105690002010080000010204081020004040404093
:1056A00040404000040404040404040000081020E6
:1056B000408000000020100804020100007048082B
:1056C0000808F0000000003036010000C030C82893
:1056D000E810E0000718272423140B000000C0384E
:1056E000E0000000203C23020227382008F88888C8
:1056F00088700000203F202020110E00C0300808D4
:1057000008083800071820202010080008F80808AA
:105710000810E000203F202020100F0008F88888A3
:10572000E8081000203F20202320180008F888886F
:10573000E8081000203F200003000000C0300808E7
:105740000838000007182020221E020008F8080070
:105750000008F808203F210101213F20000808F837
:10576000080800000020203F20200000000008085A
:10577000F8080800C08080807F00000008F888C01A
:1057800028180800203F20012638200008F80800CB
:1057900000000000203F20202020300008F8F80002
:1057A000F8F80800203F003F003F200008F830C014
:1057B0000008F808203F200007183F00E010080804
:1057C0000810E0000F10202020100F0008F8080833
:1057D0000808F000203F210101010000E010080846
:1057E0000810E0000F18242438504F0008F888886B
:1057F00088887000203F2000030C3020007088084B
:10580000080838000038202121221C00180808F858
:10581000080818000000203F2000000008F80800D9
:105820000008F808001F202020201F0008788800AA
:1058300000C83808000007380E010000F80800F81A
:105840000008F800033C0700073C030008186880C4
:105850008068180820302C03032C30200838C8003A
:10586000C83808000000203F200000001008080889
:10587000C83808002038262120201800000000FE2B
:10588000020202000000007F40404000000C30C0D7
:1058900000000000000000010638C0000002020203
:1058A000FE000000004040407F00000000000402B5
:1058B00002020400000000000000000000000000E0
:1058C00000000000808080808080808000020204D0
:1058D00000000000000000000000000000008080C8
:1058E000808000000019242222223F2008F8008036
:1058F00080000000003F112020110E0000000080F9
:1059000080800000000E1120202011000000008087
:105910008088F800000E112020103F2000008080B9
:1059200080800000001F222222221300008080F0CD
:10593000888888180020203F2020000000008080F8
:1059400080808000006B94949493600008F800803D
:1059500080800000203F210000203F200080989898
:10596000000000000020203F2020000000000080F8
:105970009898000000C08080807F000008F8000038
:1059800080808000203F24022D302000000808F88D
:10599000000000000020203F202000008080808048
:1059A00080808000203F20003F20003F80800080DA
:1059B00080800000203F210000203F2000008080E8
:1059C00080800000001F202020201F008080008099
:1059D0008000000080FFA12020110E000000008048
:1059E00080808000000E112020A0FF808080800039
:1059F0008080800020203F21200001000000808066
:105A0000808080000033242424241900008080E05A
:105A1000808000000000001F202000008080000027
:105A200000808000001F202020103F208080800008
:105A30000080808000010E30080601008080008018
:105A4000008080800F300C030C300F00008080003D
:105A5000808080000020312E0E3120008080800068
:105A60000080808080818E70180601000080808018
:105A7000808080000021302C2221300000000000B6
:105A8000807C020200000000003F40400000000057
:105A9000FF00000000000000FF0000000002027C88
:105AA000800000000040403F0000000000060101AF
:105AB00002020404000000000000000000000000DA
:105AC00000000000000000000000000000000000D6
:105AD00000000000000000000000000000000000C6
