:020000040800F2
:10000000D80E00209D010008433700087533000812
:100010004137000881090008FD3F0008000000008A
:10002000000000000000000000000000B73A0008D7
:10003000370D000800000000B53A00080D3B00082D
:10004000B7010008B7010008B7010008B7010008B0
:10005000B7010008B7010008B7010008B7010008A0
:10006000B7010008B7010008B7010008B701000890
:10007000B7010008B7010008F50C0008010D0008E1
:10008000B7010008B7010008B7010008B701000870
:10009000B7010008B7010008B7010008B701000860
:1000A000B7010008B7010008B7010008B701000850
:1000B000B7010008B7010008B7010008B701000840
:1000C000B7010008B7010008B7010008B701000830
:1000D000B7010008713F0008C93F0008B7010008D8
:1000E000291B0008B7010008B701000800F002F85A
:1000F00000F045F80AA090E8000C82448344AAF17D
:100100000107DA4501D100F03AF8AFF2090EBAE87A
:100110000F0013F0010F18BFFB1A43F0010318473B
:10012000745F0000945F0000103A24BF78C878C163
:10013000FAD8520724BF30C830C144BF04680C60ED
:10014000704700000023002400250026103A28BF35
:1001500078C1FBD8520728BF30C148BF0B60704739
:10016000642900F08180752900F07E80732900F0F9
:100170000A83002070471FB51FBD10B510BD00F0E9
:100180000CFB1146FFF7F7FF03F050FF00F02AFBCE
:1001900003B4FFF7F2FF03BC00F02EFB09488047D1
:1001A00009480047FEE7FEE7FEE7FEE7FEE7FEE759
:1001B000FEE7FEE7FEE7FEE704480549054A064B71
:1001C00070470000893B0008ED000008D8080020B7
:1001D000D80E0020D80A0020D80A00200FB47CB521
:1001E0000C0009AA009001D02044401E084B7B441B
:1001F00069460190089800F094FA05461CB1002069
:10020000694600F0A1FA28467CBC5DF814FB0000AA
:100210006105000070B50C460546012A05D0287816
:10022000800600D5EA69002302E0012305E05B1C9B
:10023000934202D2E05C0028F9D1A869E618C01AFE
:10024000A861286A184428622846AFF3008004E0B9
:10025000D5E9012114F8010B9047B442F8D32846A0
:10026000AFF3008070BD00002DE9F0410646002488
:1002700010687529314616A510D0AFF3008000280C
:1002800002DA404213A507E031688A0701D512A5BA
:1002900002E0490704D511A5012401E0AFF3008075
:1002A00000210A2206F1240709E0B0FBF2FCB0FBB2
:1002B000F2F302FB1C00303078541846491C002829
:1002C000F3D123462A463046BDE8F04100F0CAB9D2
:1002D000000000002D0000002B00000020000000A6
:1002E0002DE9F05F894604464FF0000ADFF874B14B
:1002F000FB44C0F820A02046E1688847002874D05D
:10030000252806D0D4E901219047206A401C2062AC
:10031000F1E700265F462046E16888472028054629
:1003200007DB312D05D2781910F8200C08B10643EF
:10033000F1E7B00701D526F00406C4F81CA0002799
:10034000C4F818A02A2D09D0284603F068FE38B357
:1003500004EB8708303DC8F8185019E059F8041B21
:10036000204604EB87029161E1688847012F05462A
:1003700018D1E069002820DA26F020061DE0D8F820
:10038000180000EB800005EB40003038C8F818007A
:100390002046E1688847054603F041FE0028EED17B
:1003A000012F0AD02E2D08D12046E16888477F1CF6
:1003B0000546022F46F02006C4DBA069002803DAB8
:1003C000404246F00106A061F00701D026F0100679
:1003D0006C2D0BD0682D09D04C2D39D06A2D35D01D
:1003E000742D35D07A2D33D016E038E0E1682F46F1
:1003F00020468847B842054609D16C2F26D04FF4D5
:100400008060E168064320468847054604E06C2F7B
:100410001AD04FF4807006430DB3A5F1410019289E
:1004200002D8203546F400664A4629462046266012
:100430004E46FFF795FE80B101280BD0F61D26F041
:10044000070000F1080956E74020E4E78020D8E7DC
:100450000020D6E706F104094DE7284652E7206A56
:10046000BDE8F09FD25C0000401ECAB210F8011F28
:100470008A4202D00029F9D10020704730B50546E4
:100480000B462A4613F8014B12F8010B08B1A042A3
:10049000F8D01CB1002802D06D1CF1E7284630BD11
:1004A00010B5431C02E010F8011B71B18107FAD1AD
:1004B0004FF0013202C88C1A8C4314EAC211F9D0F1
:1004C000C01A0A0603D0C01E10BDC01A10BD0A040F
:1004D00001D0801E10BD0902FCD0401E10BD032AB1
:1004E00040F2308010F0030C00F0158011F8013B51
:1004F000BCF1020F624498BF11F801CB00F8013B38
:1005000038BF11F8013BA2F1040298BF00F801CBFB
:1005100038BF00F8013B11F0030300F02580083AD2
:10052000C0F0088051F8043B083A51F804CBA0E829
:100530000810F5E7121D5CBF51F8043B40F8043B7E
:10054000AFF30080D20724BF11F8013B11F801CBB3
:1005500048BF11F8012B24BF00F8013B00F801CB84
:1005600048BF00F8012B704710B5203AC0F00B804F
:10057000B1E81850203AA0E81850B1E81850A0E8A7
:100580001850BFF4F5AF5FEA027C24BFB1E8185001
:10059000A0E8185044BF18C918C0BDE810405FEA71
:1005A000827C24BF51F8043B40F8043B08BF7047ED
:1005B000D20728BF31F8023B48BF11F8012B28BFF2
:1005C00020F8023B48BF00F8012B70474FF00002B3
:1005D0000429C0F0128010F0030C00F01B80CCF155
:1005E000040CBCF1020F18BF00F8012BA8BF20F8C3
:1005F000022BA1EB0C0100F00DB85FEAC17C24BF17
:1006000000F8012B00F8012B48BF00F8012B7047C0
:100610004FF0000200B5134694469646203922BF9B
:10062000A0E80C50A0E80C50B1F12001BFF4F7AFE6
:10063000090728BFA0E80C5048BF0CC05DF804EBC8
:10064000890028BF40F8042B08BF704748BF20F836
:10065000022B11F0804F18BF00F8012B7047704734
:10066000704770472DE9F0470D469946924604467B
:1006700000F124080168880604D5E06921F0100122
:10068000216000E00120A84201DD471B00E00027B7
:10069000A1697A1902EB0900081AA0612078C00646
:1006A00002D42046AFF30080002608E0D4E90121FF
:1006B0001AF806009047206A401C761C20624E45BE
:1006C000F4DB2078C0060AD52046AFF3008006E0B0
:1006D000D4E9012130209047206A401C2062381E56
:1006E000A7F10107F4DC07E0D4E9012118F80500BF
:1006F0009047206A401C2062281EA5F10105F3DC0A
:100700002046AFF300802078000602D50220BDE825
:10071000F0870120FBE7000001694A1C02610878AC
:10072000704700B58FB0CDE9013100210591054931
:100730007944CDE9031011466846FFF7D1FD0FB0AB
:1007400000BD0000E5FFFFFF0A6802F8010B0A6028
:100750007047D1E900239A4202D2531C0B601070FB
:10076000704710B5436913B1AFF3008001E0FFF7A4
:1007700051FD012010BD127800F124010A70002201
:100780004A700122EDE711684FF0FF32E9E70000FF
:10079000004870477808002070477546FFF7F8FF5B
:1007A000AE4605006946534620F00700854618B05E
:1007B00020B5FFF701FDBDE820404FF000064FF0E7
:1007C00000074FF000084FF0000B21F00701AC4686
:1007D000ACE8C009ACE8C009ACE8C009ACE8C009A5
:1007E0008D46704710B50446AFF300802046BDE843
:1007F0001040FFF7CDBC000001491820ABBEFEE75A
:100800002600020010B50024084801F0E9FB0A2187
:10081000064801F047FB18B9044801F06DFA84B2AC
:10082000024801F03DFC204610BD0000740000208D
:1008300070B5002506462C4608E000BFFFF7E2FF32
:100840000544052001F0C6FD641CE4B2B442F5D3B2
:10085000B5FBF6F070BD000010B50024084801F0AB
:10086000BFFB0A21064801F01DFB18B9044801F03E
:1008700043FA84B2024801F013FC204610BD000088
:10088000A400002070B5002506462C4608E000BFF5
:10089000FFF7E2FF0544052001F09CFD641CE4B273
:1008A000B442F5D3B5FBF6F070BD000070B5044658
:1008B00000688168C943C90717D1816821F0010127
:1008C000816001F0B5FE05460AE000BF01F0B0FE10
:1008D000401B022804D920688068C043C00706D0A6
:1008E00020688068C043C007F0D0002070BDA06AB7
:1008F00040F01000A062E06A40F00100E0620120D8
:1009000070BD0000F8B500260446009600688168B6
:10091000C943C9072DD0816841F0010181601648A3
:1009200016490068B0FBF1F000E0401E009000287E
:10093000FBD101F07DFE054616E000BF01F078FE18
:10094000401B022810D920688068C043C0070BD024
:10095000A06A40F01000A062E06A40F00100E0628E
:1009600084F824600120F8BD20688068C043C00777
:10097000E4D10020F8BD00002000002040420F001C
:10098000FEE7000010B5044602F04EF80349B0FB44
:10099000F1F16143491EFDD210BD000000093D0088
:1009A00001480078704700003C0000200148407872
:1009B000704700003C0000200148007970470000AB
:1009C0003C000020014931F9100070474A00002026
:1009D00009490020087048708870C8700871C1F813
:1009E000090005481E210E3001804FF4FA61418054
:1009F00081805021C18070473C00002001490120C6
:100A0000487170473C0000200149012088717047FF
:100A10003C00002001490120C87170473C000020C3
:100A200001490120087270473C00002070B54D4C10
:100A30006079002618B16671607850B16670A0794F
:100A400018B3A671607858B1012813D0022817D0C6
:100A50001BE0207810B100202070F0E70120FBE7B8
:100A6000207818B101206070A6700EE0022060703E
:100A7000E6700AE0A078401C00F00300A07004E0DB
:100A8000E078401C00F00300E070E079354D0E3551
:100A9000F8B1E671607820B1012805D0022807D0AE
:100AA0002CE000F067F829E0A07800F077F925E065
:100AB000E07840B140F6FF7101280BD0022810D039
:100AC000032815D01AE0B5F90000642816DA401C96
:100AD000288013E0B5F9020088420FDA643068809C
:100AE0000CE0B5F90400884208DA6430A88005E01B
:100AF000B5F90600642801DA401CE880207A002855
:100B000011D02672607802280DD1E07860B10128FA
:100B100011D002281AD0032805D1B5F90600002803
:100B200001DD401EE88070BDB5F900000028FADD47
:100B3000401E288070BDB5F902000028FADD643837
:100B400000B268800028F5DA6E8070BDB5F9040047
:100B50000028FADD643800B2A8800028F5DAAE80FB
:100B600070BD00003C000020014908707047000083
:100B70003C0000200348017911B100210171704748
:100B80000121FBE73C00002010B52820FFF7FAFE0A
:100B90002021044801F042FD08B1002010BD0120D1
:100BA00010BD0000000C01401FB52022084B0121A0
:100BB00020B100200092CDE9010104E00320CDE93D
:100BC0000021CDE902106946184601F037FC1FBD2F
:100BD000000C014070B50F4C0F4D01E0641E17D0A2
:100BE0002021284601F01AFD0028F7D01E20FFF72B
:100BF000C9FE20212C46284601F010FD002806D011
:100C00002021204601F00AFD0028F9D1012070BD05
:100C1000002070BDA0860100000C014070B50024CA
:100C200025466006040EFFF7D5FF08B144F0010425
:100C30006D1CEDB2082DF4D3204670BD2DE9FC41AA
:100C4000044600200090019000F040F8FFF79CFF60
:100C5000A0B31C4E1C4F354601E06D1E2FD0202145
:100C6000384601F0DBFC0028F7D001E0761E26D0E4
:100C70002021384601F0D2FC0028F7D100256E462D
:100C8000FFF7CCFF70556D1CEDB2052DF8D39DF824
:100C900000509DF801309DF802209DF80310E818DF
:100CA000561806449DF80400864208D125706370EA
:100CB000A270E17020710020BDE8FC81FFE70120F7
:100CC000FAE70000A0860100000C014010B50020EA
:100CD000FFF76AFF00222021054801F0A4FC142040
:100CE00001F078FBBDE810400120FFF75DBF000078
:100CF000000C0140014801F05DBA0000A80100208D
:100D0000014801F057BA00006401002030B590F8A6
:100D100040500124AC40C56B6C600468636043685C
:100D2000102B036803D099600068C26030BD9A60E0
:100D30000068C16030BD7047154A115448B1154B69
:100D400001280FD0022814D003281FD1C1B10122DD
:100D500017E029B15FF000024FF400710E4813E074
:100D60000122F9E719B100224FF480510BE0012272
:100D7000FAE709B1012200E000224FF4006102E02D
:100D800000224FF48071184601F04DBC70470000FE
:100D90004500002000080140000C01400349095CA7
:100DA00011B10021FFF7C8BF0121FBE7450000207A
:100DB0002DE9F84F0125002108231FA208460095C0
:100DC00002F03FFEDFF880800024102708F11809A8
:100DD00008F1090A04EB440007EB8000C6B298F85A
:100DE0000200844206D1082318A231460020009553
:100DF00002F027FE009559F82420082331460A20E6
:100E000002F01FFE082312A231463C20009502F09A
:100E100018FE1AF804004FF00803009508B10DA25F
:100E200000E00DA23146462002F00BFE641C042CAB
:100E3000D0DBBDE8F88F0000446576696365204328
:100E40006F6E74726F6C00003C0000203E0000006A
:100E50003A0000004F4E20004F4646002DE9FC5F4F
:100E60000125002108232AA20846009502F0E9FD89
:100E7000DFF8B090002409F128074FF010084FF078
:100E8000080AA7F11A0B00BF04EB440108EB81002C
:100E9000C6B299F80300844206D1082322A2314643
:100EA0000020009502F0CDFD009557F8242008237E
:100EB00031460A2002F0C5FD08231CA231463C2021
:100EC000009502F0BEFD7CB1032C0DD0CDE900A54C
:100ED0003BF9142004233146462002F07BFD641CBC
:100EE000042CD1DBBDE8FC9FCDE900A53BF9142023
:100EF00003233146462002F06DFD009534B10CA26B
:100F0000082331465E2002F09CFDE8E709A2F7E7DE
:100F10005468726573686F6C642053657474696E8D
:100F2000670000003C0000203E0000003A00000086
:100F3000250000004300000010B54FF40071034885
:100F4000FFF744FB02490020088010BD6C0600201A
:100F5000240000202DE9F04FADF22C4D664967A02A
:100F6000CDE9000168A36AA24FF4007102A8FFF75F
:100F700035F972A00124CDE90040002108237AA2AE
:100F8000084602F05EFD02F07FFC0025DFF8EC91E0
:100F9000A8466B1C7AA220210DF58160FFF71EF98F
:100FA00008230DF5816219460020009402F049FDE6
:100FB00002F06AFCFFF7C0FF4FF47A7001F00AFA02
:100FC00002A8FFF76DFA82B241F2883302A96F4896
:100FD00002F07FF940F2DC5001F0FCF942F20F76AA
:100FE0004FF0000A0DF5027BB9F800004F4668B3D8
:100FF0004FF4967001F0EEF93F88B7F5007F01D30A
:1010000040F2FF173A46624982A8FFF768FA0BF8E8
:1010100007A060A182A8FFF731FA68B14FF001087C
:10102000FFF78AFF08235CA210210020009402F041
:1010300008FD02F029FC1DE05AA182A8FFF71EFA64
:1010400010B1FFF779FF07E0FFF776FF0A2001F004
:10105000C1F9761EB6B2C7D2082354A210210020CF
:10106000009402F0EEFC02F00FFC40F6B8306D1C6C
:1010700001F0B0F90A2D03DAB8F1000F89D002E0CF
:10108000B8F1000F26D008234CA2182100200094AC
:1010900002F0D7FC02F0F8FB01234DA2202182A828
:1010A000FFF79CF8082382AA20210020009402F078
:1010B000C8FC02F0E9FB0198FFF7F2F982B241F2B5
:1010C00088333248019902F004F901200DF22C4DC9
:1010D000BDE8F08F082342A218210020009402F0FE
:1010E000B0FC02F0D1FB4FF47A7001F073F902F01A
:1010F00029FB0020EAE70000D85F00086455356A44
:101100005667314C3962000074657374000000004A
:1011100041542B4D515454555345524346473D304D
:101120002C312C222573222C222573222C2225736C
:10113000222C302C302C22220D0A000041542B4D41
:10114000515454434F4E4E3D302C226D7174747384
:101150002E6865636C6F7564732E636F6D222C311E
:101160003838332C310D0A00436F6E6E6563746935
:101170006E6720436C6F75642E2E2E0024000020B5
:101180005472793A2025642F31300000D4000020B9
:101190006C0600204F4B0000557365722063666734
:1011A000204F4B004552524F52000000557365725C
:1011B00020636667206661696C656400436F6E6ECC
:1011C000656374696E67204D5154542E2E2E0000B5
:1011D000436F6E6E205472793A2025642F350000DB
:1011E000436C6F756420636F6E6E65637420666117
:1011F000696C65640000000030B5A1B01CA00090CF
:101200001EA323A2802101A8FEF7E8FF01240021EC
:10121000082325A20846009402F013FC02F034FBD8
:1012200026A101A800F026FC4FF4FA754FF0080340
:10123000009470B123A20821002002F002FC02F009
:1012400023FB284601F0C6F802F07CFA012021B009
:1012500030BD20A20821002002F0F3FB02F014FBB5
:10126000284601F0B7F802F06DFA0020EFE7000021
:10127000313338353139303138323500434D43431D
:101280002D3430322D322E34472D65787400000015
:1012900041542B43574A41503D222573222C22258D
:1012A00073220D0A00000000436F6E6E656374695F
:1012B0006E6720576946692E2E2E0000474F542036
:1012C000495000005769466920636F6E6E6563740C
:1012D000656400005769466920636F6E6E656374CC
:1012E000206661696C656400F8B502F02BFA012490
:1012F0000021082343A20846009402F0A2FB02F05A
:10130000C3FA4FF4FA76304601F064F840F2FF1267
:101310004049414801F0B2FF082340A2194600208D
:10132000009402F08EFB02F0AFFA40A140A000F062
:10133000A1FB4FF00803009408B13FA200E041A2D6
:101340000821002002F07DFB304601F043F802F056
:101350009BFA08233FA210210020009402F071FBA9
:1013600002F092FA002531A13FA000F083FB38B1D2
:1013700008233FA210210020009402F062FB05E048
:10138000C82001F027F86D1C032DECDB02F07CFA7D
:1013900008233BA218210020009402F052FB02F027
:1013A00073FA22A13BA000F065FB4FF00803009404
:1013B00008B13CA200E03FA21821002002F041FB4E
:1013C000304601F007F802F05FFA18A13EA000F0E5
:1013D00051FB4FF00803009408B13FA200E042A285
:1013E0002021002002F02DFB304600F0F3FF02F038
:1013F0004BFA4FF4FA6000F0EDFFBDE8F84002F060
:10140000A1B900004553503832363620496E697410
:101410002E2E2E006C060020D4000020546573741C
:10142000696E672041542E2E2E0000004F4B0000A5
:1014300041540D0A0000000041542074657374206B
:101440004F4B000041542074657374206661696CD1
:101450006564000044697361626C696E672065634E
:10146000686F2E2E2E000000415445300D0A0000FA
:101470004563686F2064697361626C656400000095
:1014800053657474696E672053746174696F6E2E4E
:101490002E2E000041542B43574D4F44453D310DF6
:1014A0000A00000053746174696F6E206D6F64658B
:1014B000204F4B0053746174696F6E206D6F6465CB
:1014C000206661696C65640041542B43574448436E
:1014D000503D312C310D0A004448435020656E6167
:1014E000626C6564000000005365742044484350FA
:1014F000206661696C6564002DE9F04FADF20C4D1A
:10150000002848D0002946D08DE80E0003464FF44D
:10151000007422A2214603A8FEF760FEFFF70CFD2F
:1015200003A8FEF7BDFF82B24FF47A6303A92348F4
:1015300001F0CFFE01F07CF80546214EA14640F2B5
:10154000FF1B4FF000080DF5037A4FF4FA771DE00A
:101550003488C4B14C4500D35C462246194983A85F
:10156000FEF7BDFF0AF8048017A183A8FEF786FFE7
:1015700020B101200DF20C4DBDE8F08F13A183A81E
:10158000FEF77CFF38B9012000F024FF01F050F88D
:10159000401BB842DCD30020ECE7000041542B4D47
:1015A0005154545055423D302C222573222C222573
:1015B00073222C25642C25640D0A0000D400002021
:1015C000240000206C0600204F4B00004552524F73
:1015D0005200000070B5DAB00D4606460346009191
:1015E0003DA24FF4807101A8FEF7F8FD012400210F
:1015F00008233FA20846009402F023FA334640A293
:10160000402141A8FEF7EAFD082341AA194600201F
:10161000009402F016FA2B463CA2202151A8FEF7B6
:10162000DDFD082351AA10210020009402F009FAE0
:1016300002F02AF937A101A800F01CFA4FF47A75DC
:101640004FF00803009410B133A2182121E036A214
:101650001821002002F0F5F9082338A220210020EB
:10166000009402F0EEF902F00FF9C82000F0B2FE8B
:1016700028A101A800F0FEF94FF008030094A8B1DA
:1016800025A21821002002F0DCF908232EA2202137
:101690000094002002F0D5F902F0F6F8284600F098
:1016A00099FE02F04FF801205AB070BD1EA2182119
:1016B000002002F0C6F9082327A220210020009470
:1016C00002F0BFF902F0E0F8284600F083FE02F0D5
:1016D00039F80020E8E7000041542B4D5154545391
:1016E00055423D302C222573222C25640D0A000022
:1016F0005375627363726962696E672E2E2E0000E5
:10170000546F7069633A202573000000516F533A9B
:10171000202564004F4B0000537562736372696249
:1017200065204F4B0000000053756273637269625D
:1017300065206661696C6564000000005265747222
:1017400079696E672E2E2E0052657472792073753A
:10175000636365737300000052657472792066617B
:10176000696C6564000000002DE9F041664FADF53D
:10177000906D38884FF4FF75A84203D83E88002E3C
:1017800071D001E040F2FF163246604980A8FEF7B2
:10179000A6FE00243C805D485DA1047080A88455AD
:1017A000FEF76CFE00285ED07B2180A8FEF75CFE71
:1017B000002858D0002211466E460BE07B2B02D049
:1017C0007D2B02D002E0521C00E0521E7354401CDC
:1017D000491C1AB103780BB1A942EFDD74540029FA
:1017E00041D000254EA13046FEF748FEDFF8448187
:1017F0004FF4805630B100223146404600F013FFCE
:10180000012509E04CA16846FEF738FE20B101220F
:101810003146404600F007FF4CA16846FEF72EFE19
:101820004F4F4FF4007630B100223146384600F079
:10183000FAFE012509E04BA16846FEF71FFE20B124
:1018400001223146384600F0EEFE4CA16846FEF714
:1018500015FE4FF4006638B101223146404600F0D3
:10186000E2FE01250AE04BE04AA16846FEF706FECB
:1018700020B100223146404600F0D5FE4BA168461B
:10188000FEF7FCFD4FF4807628B101223146404638
:1018900000F0C9FE0AE04AA16846FEF7EFFD20B15C
:1018A00000223146404600F0BEFE15B10120FFF790
:1018B0005BF948A16846FEF7E1FD88B1801D064648
:1018C0002221FEF7D1FD05000AD02C70334643A239
:1018D00080210DF58060FEF781FC2220287008E051
:1018E00000F0A6FE03464AA280210DF58060FEF7B7
:1018F00075FC00231A460DF5806152A0FFF7FCFD30
:101900000DF5906DBDE8F081240000206C060020EC
:101910002B4D51545453554252454356000000003C
:10192000226C65645F636F6E74726F6C223A7472BE
:101930007565000000080140226C65645F636F6E8E
:1019400074726F6C223A66616C7365002262656521
:10195000705F636F6E74726F6C223A74727565009B
:10196000000C014022626565705F636F6E74726F78
:101970006C223A66616C7365000000002277617426
:1019800065725F636F6E74726F6C223A7472756504
:10199000000000002277617465725F636F6E74727D
:1019A0006F6C223A66616C73650000002266616E9E
:1019B0005F636F6E74726F6C223A747275650000AB
:1019C0002266616E5F636F6E74726F6C223A66613D
:1019D0006C736500226964223A2200007B226964EC
:1019E000223A222573222C22636F6465223A323018
:1019F000302C2264617461223A6E756C6C2C226DFD
:101A00007367223A2273756363657373227D0000E6
:101A10007B226964223A22256C75222C22636F6432
:101A200065223A3230302C2264617461223A6E753C
:101A30006C6C2C226D7367223A2273756363657335
:101A400073227D00247379732F6455356A5667318C
:101A50004C39622F746573742F7468696E672F70C8
:101A6000726F70657274792F7365745F7265706CD4
:101A7000790000002DE9F04FADF5017D8B4604465D
:101A80004EF66025FFF758FA2046FEF709FD82B2B0
:101A9000C8232146214801F01CFC322000F09AFCAA
:101AA0001F4F4FF4007940F2FF180026EA4623E06A
:101AB0003888F0B1C82000F08DFC3C884C4500D33C
:101AC0004446224617496846FEF709FD0AF80460B5
:101AD000BBF100000BD001466846FEF7CFFC30B1E9
:101AE000FFF72AFA01200DF5017DBDE8F08FFFF721
:101AF00023FA0A2000F06EFC6D1EADB2D8D23C88ED
:101B00004C4500D34446224606496846FEF7E7FCAA
:101B10000DF80460FFF710FA0020E4E7D40000207D
:101B2000240000206C06002010B54FF4805000F017
:101B300079FC4FF4005000F075FC4FF4804000F049
:101B400071FCBDE810404FF4004000F06BBC72B671
:101B5000FEE7000001484088704700002C0000208C
:101B60000148C068704700002C0000200748002191
:101B70004FF6FF72016041600172054801704280BA
:101B80008280C2808160C160704700006C080020C4
:101B90002C000020174910B58A68521C8A60164A2A
:101BA0000B78D0545B1CD8B20870092821D3107868
:101BB0002C2819D15078E42816D100231846145C3B
:101BC000401C2344DBB20828F9DB107A98420BD181
:101BD000C868401CC860508840BA8880908840BA65
:101BE000C880D08840BA48800020087010605060DB
:101BF000107210BD2C0000206C080020F8B50024E5
:101C0000009490F824202546012A12D0012280F861
:101C100024204A681F23072A0DD20668776B521EBC
:101C200002EB820293409F430B6893401F4377630C
:101C300019E00220F8BD06680D2A0AD2376BD21FC0
:101C400002EB820293409F430B6893401F4337632C
:101C500009E0F76A0D3A02EB820293409F430B685A
:101C600093401F43F7620A68072306680A2A0AD3CB
:101C7000F7680A3A02EB420293409F438B68934015
:101C80001F43F76008E0376902EB420293409F432D
:101C90008B6893401F4337610A68102A01D0112ACC
:101CA00020D1124B02689A4217D193681B0219D4B3
:101CB000936843F4000393600968102912D10C491A
:101CC0000C4A0968B1FBF2F101EB8101490000E027
:101CD000491E00910029FBD104E0816A41F02001F6
:101CE0008162012480F824502046F8BD0024014080
:101CF0002000002040420F000068C06C70470000C8
:101D00002DE9F0414FF0000704003D467ED0A06A67
:101D1000002628B9E66284F82460204600F07EF8A8
:101D20002046FEF7C3FDA16AC90600D420B1A06A0F
:101D300040F01000A06269E0A16A21F4885141F0EE
:101D40000201A1626268E169237B0A4347EA430119
:101D50000A43A1684FF48077B94209D0012907D01E
:101D60005FF0000194F814C0BCF1010F02D00AE04A
:101D70003946F7E7F3B1A36A43F02003A362E36AAD
:101D800043F00103E3622368D3F804C02CF4694CE8
:101D90004CEA010CC3F804C021688B68DFF870C0FE
:101DA00003EA0C0313438B60A168B9420BD00129ED
:101DB00009D00CE0DFF85CC0A3690CEB43330B43A4
:101DC00043F40061DFE7218A0D05A5F58015216840
:101DD000CB6A23F470032B43CB62216889680E4BD6
:101DE0001940914208D1E662A16A21F0020141F056
:101DF0000101A162BDE8F081A06A20F0020040F07C
:101E00001000A062E06A40F00100E0620120F1E70A
:101E1000FDF7E1FF00E0FFFFFE0E1FFF10B586B0EB
:101E2000002100910191029103911A4C03681A4913
:101E300003221A48A34211D18B6943F400738B61CA
:101E40008B6903F4007304938B6943F008038B617F
:101E5000896901F008010491022113E0104CA342AA
:101E600015D18B6943F480638B618B6903F48063C4
:101E700004938B6943F008038B61896901F00801C1
:101E800004910121CDE90012694600F0D7FA06B0AD
:101E900010BD00000024014000100240000C014071
:101EA000002801402DE9F84300270D46044600971D
:101EB00000F0BEFB804620688168C90508D5A06A8D
:101EC00040F02000A06284F824700120BDE8F8836F
:101ED0004168C90503D4C06A10F4700F2AD00220EB
:101EE00000F044FC3B490968B1FBF0F62068036947
:101EF00039490B424FEA61014FEAA1121FD1C36871
:101F00004FEA611C13EA0C0F19D103690B4225D16A
:101F1000C068104222D1142023E0681C0AD02DB1E1
:101F200000F086FBA0EB0800A84203D920680068F7
:101F3000800725D5206800688007EED52DE003696D
:101F40000B4202D1C168114206D0026923490A42FC
:101F500006D1C068084203D1542002E0292000E0E5
:101F6000FC204643009816E0681C11D02DB100F00B
:101F70005FFBA0EB0800A8420AD90098B04207D244
:101F8000A06A40F00400A06284F8247003209DE75A
:101F90000098401C0090B042E6D321686FF0120018
:101FA0000860A06A40F40070A06220688068C0F3F6
:101FB000424007280CD1207B50B9A06A20F48070E1
:101FC000A062A06AC00403D4A06A40F00100A0622D
:101FD00000207BE72000002024499224499224001D
:101FE00070B5044690F8240001280DD0012084F833
:101FF00024002046FEF786FC02004FF0000005D0CA
:1020000084F82400104670BD022070BDA16A40F221
:102010000123994341F48071A1621F4D23681F4938
:10202000AB4218D10E6816F4702F14D0A66A46F48D
:102030008016A6620E68760505D5A66A26F40056B7
:1020400046F48056A662A66AF6040AD5E66A26F029
:102050000606E66206E0A66A26F48016A6625E68B8
:10206000E9E7E06284F824006FF00200186020685D
:102070008368C3F34243072B05D1A84208D10968FE
:1020800011F4702F04D0816841F480118160B9E7A8
:10209000816841F4A001F9E70028014004240140CF
:1020A00010B5044690F82400012807D0012084F8D8
:1020B00024002046FEF7FAFB10B107E0022010BD15
:1020C000A16A21F4885141F00101A162002184F844
:1020D000241010BD10B590F821100022022905D05F
:1020E0000421816380F82020012010BD01680B6865
:1020F00023F00E030B6001680B6823F001030B60F3
:1021000090F84030C46B012101FA03F3636080F85A
:10211000211080F82020104610BD000010B590F866
:1021200021100024022903D00421816301243DE011
:1021300001680A6822F00E020A6001680A6822F04B
:1021400001020A601A4A0168914201D1012121E08D
:10215000174A1432914201D110211BE0144A28324F
:10216000914201D1891515E0114A3C32914201D1C9
:1021700089140FE00E4A5032914202D14FF480315F
:1021800008E00B4A6432914202D14FF4801101E021
:102190004FF08071064A083A5160012180F8211001
:1021A000002180F82010416B01B18847204610BD06
:1021B000080002402DE9F05FC16B0C6801680B68F4
:1021C000D0F840C0042202FA0CF2494DDFF824A1F5
:1021D000494E4A4FDFF828B1DFF828E122422CD0DF
:1021E0005A072AD50A68920603D40A6822F0040224
:1021F0000A600168A94201D1042219E0514501D1C8
:10220000402215E0B14202D14FF4806210E0B942A1
:1022100002D14FF480420BE0594502D14FF48022A5
:1022200006E0714502D14FF4800201E04FF0806278
:102230002F4908394A60C16A3BE04FF0020808FAAA
:102240000CF818EA040F4FF000094FF0010235D0E6
:102250005FEA837832D50B689B0605D40B6823F0C0
:102260000A030B6080F821200168A94201D10222F3
:1022700019E0514501D1202215E0B14202D14FF4BD
:10228000007210E0B94202D14FF400520BE0594500
:1022900002D14FF4003206E0714502D14FF4001232
:1022A00001E04FF00072124908394A6080F820902E
:1022B000816A00291AD0BDE8F05F0847082505FAB1
:1022C0000CF5254212D01B0710D50B6823F00E0326
:1022D0000B6090F84010C36B02FA01F15960826301
:1022E00080F8212080F82090016BE2E7BDE8F09FA4
:1022F000080002401C00024030000240440002403E
:10230000580002406C00024030B528B308C8134999
:1023100014221944B1FBF2F18900C16310498163B1
:10232000022141771A6843F6F0718A43D0E900141C
:102330002143D0E902452C432143046921434469E8
:102340002143846921431143196000214163012223
:1023500042770177084630BD012030BDF8FFFDBF50
:102360000000024070B5044690F8200000250128C6
:102370000CD0012084F8200094F821600020012E68
:1023800006D084F820000225284670BD022070BDCA
:10239000022684F82160A0632068066826F0010602
:1023A00006602046FEF7B2FCE06A0028206801685B
:1023B00002D041F00E0106E021F004010160206826
:1023C000016841F00A0101602068016841F00101E3
:1023D0000160D9E770B5044600F02AF90546601C93
:1023E00002D004480078044400F022F9401BA042C7
:1023F000FAD370BD14000020B0F5805F0AD0B0F5AC
:10240000005F09D0B0F5804F08D0B0F5004F07D17C
:10241000FEF706BBFEF7F2BAFEF7F6BAFEF7FABA17
:1024200070470000044910B50A68024202D00860F3
:10243000FFF7E2FF10BD0000140401402DE9F84F42
:10244000DFF8B8910024A9F1040B23460F2709F106
:10245000040AABF1040EC9E00125A5402A40AA42B6
:102460007DD1674ED1F804C0ACEB0608B44532D03C
:1024700014DCBCF1030F3AD009DCBCF1000F2AD008
:10248000BCF1010F1CD0BCF1020F31D11DE0BCF139
:10249000110F17D0BCF1120F2AD119E0B8F5881F1F
:1024A00019D006DCB8F5803F15D0B8F5801F1FD1D4
:1024B00011E0B8F5001F0ED0B8F5041F18D10AE0DE
:1024C000CB6815E0CB681B1D12E0CB6808330FE02A
:1024D000CB680C330CE08B682BB1012B4FF0080359
:1024E00003D0456104E0042302E0056100E000231D
:1024F000FF2A01D8064601E000F104064FEA8405F0
:1025000001D9A5F12005D6F8008007FA05FC28EAD4
:102510000C0803FA05F548EA0508C6F800804D687E
:10252000ED0062D5374DAE6946F00106AE61AD698A
:1025300024F0030605F001050095334D06EB050C6C
:10254000DCF80850A607360F07FA06F825EA080552
:10255000DFF8B880404503D14FF0000817E044E0B1
:10256000DFF8AC80404502D14FF001080FE0DFF802
:10257000A480404502D14FF0020808E0DFF89880BF
:10258000404502D14FF0030801E04FF0040808FA7B
:1025900006F848EA0508CCF808804D68D9F80060CC
:1025A000ED024D4601D5164300E096432E604D687E
:1025B000DAF80060AD02554601D5164300E09643B7
:1025C0002E604D68DBF80060AD035D4601D5164313
:1025D00000E096432E604D68DEF80060ED0375461E
:1025E00001D5164300E096432E60641C0D682A4610
:1025F000E5407FF431AFBDE8F88F000008040140EA
:1026000000001110001002400000014000080140CD
:10261000000C014000100140001401408068084097
:1026200000D0012070470AB1016170470904FBE73F
:10263000014880687047000014000020024881684B
:10264000027811448160704714000020074810B5DB
:10265000016841F010010160032000F075F80F20BF
:1026600000F006F800F024F8002010BD0020024021
:1026700070B50D4D04464FF47A712878B1FBF0F037
:102680000A490968B1FBF0F000F0AAFB48B9102C28
:1026900007D200222146501E00F036F800206C6060
:1026A00070BD012070BD000014000020200000203B
:1026B0000C4808B5816941F001018161816901F02F
:1026C00001010091C16941F08051C161C06900F010
:1026D000805000900448416821F0E06141F00071B1
:1026E000416008BD0010024000000140002809DBE5
:1026F00000F01F02012191404009800000F1E0201C
:10270000C0F8001170470000F0B40E4B1B680C4677
:10271000C3F30223C3F10705042D00D90425191DB5
:10272000072901D2002300E0DB1E012606FA05F18D
:10273000491E214099409E40761E16403143F0BC10
:1027400001F05DBC0CED00E0064900F007020868EE
:102750004FF6FF03184040EA0220034A1043086086
:10276000704700000CED00E00000FA0510B50146CE
:102770000020234C012922D0022939D010291DD153
:1027800061682268D20119D51E48C1F38342C9038A
:10279000805C0AD561681B4AC1F34041921E515CBE
:1027A000194AB2FBF1F1484301E018494843616816
:1027B000490203D440000321B0FBF1F010BD226AAE
:1027C000C2F30121012903D1920701D5C80310BD2D
:1027D000022905D1626A920702D549F6404010BD30
:1027E0000329FCD121688903F9D54FF2244010BD9B
:1027F00000F030F96168C1F38131491C4900DBE721
:1028000000100240B645000800127A0000093D00A1
:102810002DE9F84305460078354CC00754D0E069EF
:102820000026C00008D4E06940F08050E061E06913
:10283000012600F0805000902E480168C90512D48E
:102840000168804641F480710160FFF7F1FE0746A0
:1028500005E000BFFFF7ECFEC01B642823D8D8F8C2
:102860000000C005F6D5206A10F4407021D0A98878
:1028700001F4407181421CD0206A1F49012220F4DA
:1028800040700A6000220A602062C00711D0FFF782
:10289000CFFE074641F2883808E000BFFFF7C8FEC8
:1028A000C11B414502D90320BDE8F883206A800797
:1028B000F4D5206A696820F44070084320621EB194
:1028C000E06920F08050E0612878800705D56068D5
:1028D000A96820F44040084360602878C00605D508
:1028E0006068E96820F48000084360600020DBE74E
:1028F0000010024000700040400442422DE9F047C1
:102900000F46050061D0434E306800F00700B84222
:1029100009D2306820F0070038433060306800F09A
:102920000700B84251D128683B4C810712D54007B7
:1029300003D5606840F4E06060602878000703D544
:10294000606840F4605060606068A96820F0F00042
:10295000084360602878C00728D06868012810D034
:102960002168022810D0890700292EDA616821F039
:10297000030101436160FFF75BFE804641F2883945
:102980000DE021688903EFE78901EDE7FFF750FECD
:10299000A0EB0801494502D90320BDE8F087606833
:1029A000696800F00C00B0EB810FEFD1306800F0E7
:1029B0000700B8420BD9306820F007003843306078
:1029C000306800F00700B84201D00120E5E7287820
:1029D000400705D56068E96820F4E060084360605E
:1029E0002878000706D56068296920F4605040EA1D
:1029F000C100606000F03EF86168084AC1F303114D
:102A0000515CC8400649086006480068FFF730FE80
:102A10000020C2E70020024000100240C645000826
:102A200020000020180000200148006870470000C6
:102A3000200000200448054900684968044AC1F3A1
:102A40000221515CC8407047200000200010024065
:102A5000D64500080448054900684968044AC1F39E
:102A6000C221515CC8407047200000200010024085
:102A7000D64500080E4A51680E4801F00C03042B9D
:102A800011D0082B0FD10C48C1F38343C903C05C9C
:102A90000AD55168084AC1F34041921E515C054A6B
:102AA0005043B0FBF1F070470449484370470000C1
:102AB0000010024000127A00A445000800093D0001
:102AC0002DE9F84F040070D02078C04DC00749D0E0
:102AD0006868C0F38100012807D06868C0F38100EE
:102AE000022809D16868C00306D52868800339D553
:102AF00060680028E7D035E06068B0F5803F0BD013
:102B000010B1B0F5A02F11D0286820F480302860D3
:102B1000286820F4802002E0286840F48030286093
:102B2000606890B1FFF784FD06460AE0286840F42B
:102B300080202860F0E700BFFFF77AFD801B642843
:102B400073D828688003F7D50CE0FFF771FD0646BF
:102B500005E000BFFFF76CFD801B6428F0D82868F3
:102B60008003F7D420789A4E80074FF001094FF088
:102B7000000839D5686810F00C0F07D06868C0F3FA
:102B80008100022809D16868C00306D4286880073C
:102B900014D52069012808D110E02069B0B1C6F829
:102BA0000090FFF745FD074605E00AE1FFF740FD0D
:102BB000C01B0228C4D828688007F7D52868616937
:102BC00020F0F80040EAC10028600DE0C6F800805F
:102BD000FFF72EFD074604E0FFF72AFDC01B022881
:102BE00023D828688007F7D4207800072CD57948A7
:102BF000A169D9B1C0F80090FFF71AFD074604E0BB
:102C0000FFF716FDC01B02280FD8686A8007F7D5AA
:102C100071484FF4FA510068B0FBF1F0009000BF2A
:102C20000098411E0091FAD20EE080E0C0F80080CA
:102C3000FFF7FEFC074604E0FFF7FAFCC01B022882
:102C400075D8686A8007F7D42078400760D5E869AE
:102C50000027C00008D4E86940F08050E861E869C6
:102C6000012700F0805000905C480168C90513D42A
:102C70000168834641F480710160FFF7D9FC824608
:102C800006E000BFFFF7D4FCA0EB0A0064284ED892
:102C9000DBF80000C005F5D5E06801280AD008B1CE
:102CA000052813D0286A20F001002862286A20F045
:102CB000040002E0286A40F001002862E06841F266
:102CC000883B98B1FFF7B4FC82460BE0286A40F0DD
:102CD00004002862EEE700BFFFF7AAFCA0EB0A01A0
:102CE00059455AD8286A8007F6D50CE0FFF7A0FCB2
:102CF000824605E0FFF79CFCA0EB0A0159454CD841
:102D0000286A8007F6D41FB1E86920F08050E86196
:102D1000E06988B36968C1F38101022944D00228BF
:102D2000C6F8608004D0FFF783FC044638E034E046
:102D3000FFF77EFC074604E0FFF77AFCC01B022881
:102D40002BD828688001F7D4206AB0F5803F05D1E0
:102D50006868A16820F4003008436860D4E908017D
:102D60000843696821F4741108436860C6F86090EC
:102D7000FFF75EFC044606E025E000BFFFF758FCC5
:102D8000001B022809D828688001F7D51BE000BF86
:102D9000FFF74EFC001B022802D90320BDE8F88F84
:102DA00028688001F4D40EE00128F7D06868226A10
:102DB00000F48031914204D1616A00F470108842BD
:102DC00001D00120EAE70020E8E7000000100240FF
:102DD0000000424280044242200000200070004077
:102DE00010B5401EB0F1807F01D3012010BD4FF01F
:102DF000E02460610F21601701F001F90020A0615B
:102E000007202061002010BD704710B504460068FF
:102E1000406994F84110C0F3C010212911D180B14C
:102E20002068143050E8001F21F0800140E80012B3
:102E3000002AF5D1A06B08B1FFF74CF9204600F04D
:102E40004AFF2068406994F84210C0F3801022299C
:102E500011D180B12068143050E8001F21F04001EA
:102E600040E80012002AF5D1E06B08B1FFF732F913
:102E7000204600F009FF002010BD7047F8B501683A
:102E800004460868CA684B6910F00F0F4FF0000540
:102E900059D003F0010602F49077374365D0C1079B
:102EA00005D0D10503D5616C41F001016164410792
:102EB00005D5D90703D0616C41F002016164810737
:102EC00005D5D90703D0616C41F0040161640107A5
:102ED00007D502F02001314303D0616C41F00801B5
:102EE0006164616C00293AD0800604D5900602D551
:102EF000204600F0FEFE20684069616CC0F380103F
:102F0000090700D460B3204600F0BEFE2068406987
:102F1000400621D52068143050E8001F21F0400100
:102F200040E80012002AF5D1E06BA8B16D49416379
:102F3000E06BFFF7F3F8002811D0E06B416B01B0B4
:102F4000BDE8F040084783060FD593060DD520460F
:102F5000BDE8F84000F0CDBE2046FFF78EFFF8BD7B
:102F60002046FFF78AFF6564F8BD266B2023012EFB
:102F70007CD1C6067AD5D60678D508684868009010
:102F800048694FF00206400640D5E16B086840688A
:102F90000004000CE8D0A28D8242E5D9E085886962
:102FA00020282DD020680C3050E8001F21F48071BB
:102FB00040E80012002AF5D12068143050E8001FC4
:102FC00021F0010140E80012002AF5D120681430F8
:102FD00050E8001F21F0400140E80012002AF5D11E
:102FE00084F84230256320680C3050E8001F21F03F
:102FF000100140E80012002AF5D1E06BFFF76AF8F3
:103000006663A08DE18D401A81B22AE0A08DE18D2A
:10301000401A81B2E08D0028A6D00029A4D02268F1
:103020000C3252E8000F20F4907042E80007002FA5
:10303000F5D12068143050E8002F22F0010240E85A
:103040000027002FF5D184F84230256320680C302A
:1030500050E8002F22F0100240E80023002BF5D1A9
:1030600066632046FFF7D0FEF8BDFFE705062BD5C7
:10307000150629D594F841002128F5D1A068B0F5AE
:10308000805F01D12069B0B1206A411C21622168B2
:1030900000784860E08C401E0004000CE084E3D11E
:1030A0002068C16821F08001C1602068C16841F0DA
:1030B0004001C160D8E7206A0088C0F3080048607A
:1030C000206A801C2062E5E74006CDD55006CBD5AE
:1030D000CA68204622F04002CA6084F8413000F0FD
:1030E00048F9C1E78B3B000870B5040004D094F8A0
:1030F0004100002510B106E0012070BD84F8405069
:10310000204600F023F8242084F841002068C1689C
:1031100021F40051C160204600F04CFE2068016996
:1031200021F4904101612068416921F02A01416147
:103130002068C16841F40051C1606564202084F8B2
:10314000410084F842006563002070BDF0B585B091
:10315000002400940194029403940646414F0368AE
:10316000414902200322414DBB424ED18B6943F4B9
:1031700080438B618B6903F4804304938B6943F034
:1031800004038B618969039201F004010491010237
:10319000CDE9001069462846FFF750F92815CDE91A
:1031A0000004694628460294FFF748F9314D30483B
:1031B0008027C5E90004C5E902472C616C61AC6158
:1031C0002846EC61FFF7A0F808B1FEF7C0FCF563F4
:1031D0006E62284D26484435143801C5102091C52B
:1031E000244845F8104944306C61AC61EC61FFF74C
:1031F0008BF808B1FEF7ABFCB56300220121252056
:103200006E62FFF781FA252028E01B4EB34227D1DA
:10321000CB6943F40033CB61CB6903F400330493EF
:103220008B6943F004038B618969039201F0040107
:1032300004910421CDE9001069462846FFF7FEF805
:103240000820CDE90004694628460294FFF7F6F805
:10325000002202212620FFF757FA2620FFF746FA20
:1032600005B0F0BD003801400010024000080140E8
:1032700058000240640100200044004090F84230B1
:10328000202B01D00220704721B11AB10023036323
:1032900000F0ECBD012070470A49884211D1C08D71
:1032A000A0F2FF10414208480180018819B1074A85
:1032B00000880021115440F2FF1204490148FFF731
:1032C000DDBF7047D4000020240000206C060020E1
:1032D00070472DE9F843044690F841009846164699
:1032E0000D46202802D00220BDE8F88385B17EB1CA
:1032F00000206064212084F84100FFF799F9A6843A
:103300008146E684A0682027B0F5805F02D003E004
:103310000120E9E7206910B12E4600250EE00026C5
:103320000CE08021204600F0E9FDA8B9C6B116F8EE
:10333000010B21684860E08C401EE084E08C4B4625
:103340004FF00002CDF800800028EAD14FF0400194
:10335000204600F0D3FD40B184F841700320C3E75C
:1033600035F8020BC0F30800E3E784F84170002051
:10337000BAE77047FEE7000070B501220E4D9403D6
:1033800021462846FFF74FF90122560331462846C9
:10339000FFF749F900F048F8002221462846FFF7D8
:1033A00042F900F041F8002231462846FFF73BF988
:1033B000BDE8704000F038B80010014070B50B4D0A
:1033C0004FF48044002221462846FFF72CF90122C1
:1033D00051032846FFF727F900F026F82146284632
:1033E000BDE870400122FFF71EB900000010014047
:1033F00070B50C4C012291032046FFF714F900F040
:1034000013F80122550329462046FFF70CF900F076
:103410000BF8002229462046FFF705F9BDE8704069
:1034200000F002B8001001400320401EC0B2FCD2E0
:103430007047000010B5C2B00C4CCDE900010CA2E1
:103440004FF4807102A82368FCF7C8FE401EFF28D5
:103450000AD200231A4602A913A0FEF74DF800284D
:1034600002D02068401C206042B010BD280000201F
:103470007B5C2269645C223A5C22256C755C225C70
:103480002C5C22706172616D735C223A7B5C222538
:10349000735C223A7B5C2276616C75655C223A250E
:1034A000737D7D7D00000000247379732F64553592
:1034B0006A5667314C39622F746573742F7468696A
:1034C0006E672F70726F70657274792F706F73747E
:1034D000000000003EB500241148009401940294BD
:1034E0000E498460016004730475012505614FF481
:1034F00060214460C161FEF703FC08B1FEF727FBC1
:103500000920CDE90005694602940548FEF776FBDF
:10351000002801D0FEF71BFB3EBD00000024014047
:10352000740000203EB500241148009401940294D8
:103530000E498460016004730475012505614FF430
:1035400060214460C161FEF7DBFB08B1FEF7FFFAC2
:103550000820CDE90005694602940548FEF74EFBB8
:10356000002801D0FEF7F3FA3EBD0000002801401C
:10357000A40000200D4808B5416941F001014161F6
:103580004069002200F00100009011460E20FFF774
:10359000BBF80E20FFF7AAF8002211460F20FFF714
:1035A000B3F8BDE808400F20FFF7A0B800100240B4
:1035B0002DE9F04385B00020009001900290039027
:1035C0003A48816941F010018161816901F010017F
:1035D0000491816941F020018161816901F020013C
:1035E0000491816941F004018161816901F0040164
:1035F0000491816941F00801816180692C4F00F0DC
:1036000008004FF4C0440490012221463846FFF7D9
:103610000AF8DFF8A08001224FF4C8514046FFF7B6
:1036200002F8DFF894904FF40876012231464846BC
:10363000FEF7F9FF009401240325694638460194FA
:10364000CDE90245FEF7FAFE4FF4704000901B48AA
:10365000CDE9010469464846FEF7F0FE4FF41060DC
:10366000CDE900040220CDE9020569464046FEF797
:10367000E5FE2003CDE9000469464046CDE9024558
:10368000FEF7DCFECDE9006469464846CDE9024517
:10369000FEF7D4FE002211462820FFF735F8282037
:1036A000FFF724F805B0BDE8F083000000100240E9
:1036B0000010014000080140000C014000002110F2
:1036C00010B50E4C0C480C2120604FF4E1306060C6
:1036D0000020A060E060C4E90401A061E061204630
:1036E000FFF702FD08B1FEF732FA2068C16841F029
:1036F0001001C16010BD000000380140D40000205E
:1037000010B50E4C0C480C2120604FF41650606030
:103710000020A060E060C4E90401A061E0612046EF
:10372000FFF7E2FC08B1FEF712FA2068C16841F029
:103730002001C16010BD0000004400401C010020B9
:10374000FEE7FEE730B40021084B0A465FF00000B8
:1037500003EBC004401CC0B262548028F8D3491C5B
:10376000C9B20829F2D330BC00F08EB8EC010020B9
:1037700030B5CC0801F0070301259D40EBB2064DA2
:1037800005EBC005C808285C0AB1184302E063EAEB
:103790000000C043285530BDEC01002010B50021C9
:1037A000AE2000F06CF90021084600F068F9002115
:1037B000102000F064F90021402000F060F90021A1
:1037C000812000F05CF90021CF2000F058F90021A1
:1037D000A12000F054F90021C82000F050F9002188
:1037E000A62000F04CF90021A82000F048F90021A3
:1037F0003F2000F044F90021D32000F040F90021DF
:10380000084600F03CF90021D52000F038F90021ED
:10381000802000F034F90021D92000F030F9002197
:10382000F12000F02CF90021DA2000F028F9002125
:10383000122000F024F90021DB2000F020F9002103
:10384000302000F01CF90021202000F018F90021A0
:10385000022000F014F900218D2000F010F9002161
:10386000142000F00CF9FFF76DFF0021BDE81040B7
:10387000AF2000F004B90246012000E05043491E89
:10388000C9B2FBD27047000070B5184E002400BFCB
:1038900004F1B000C0B2002100F0F1F800210846A8
:1038A00000F0EDF80021102000F0E9F8FFF764FDCA
:1038B000782000F001F9FFF79BFD402000F0FCF8B4
:1038C000FFF796FD5FF0000506EBC500005D00F018
:1038D000F3F8FFF78DFD6D1CEDB2802DF4D3FFF7EB
:1038E0006DFD641CE4B2082CD2D370BDEC01002045
:1038F0002DE9FC4F1C460E4682468B460190082B54
:103900000DD0600700D0012000EBD40061084843CF
:10391000C0B28146203AD0B2009000204BE0062091
:10392000F7E7082C13D00C2C18D0102C1BD0182C17
:1039300044D10098234900EBC00000BF01EB800197
:10394000002711F80850E80712D00B9A13E00098EE
:103950001D4900EB400001EB4001F1E700981B49D5
:1039600000EB4000EAE71A49009801EB0011E7E795
:103970000B9828B3002231465046FFF7F9FE761C1B
:103980007F1C6D08FFB2F6B2082FDCD30AF10100EC
:1039900000F0FF0A082C0AD00199AAEB0100B0EB55
:1039A000540F04D10BF108008A4600F0FF0B08F118
:1039B00001005E46C0B280464845B2D3BDE8FC8FE8
:1039C0000122D8E76A520008DE45000806480008D0
:1039D0007A4C00082DE9F84F0025DDE90A691F46F9
:1039E00092468B468046082E00D1022500241CE01A
:1039F000381B401EC1B20A20FFF73DFFBAFBF0F0B2
:103A00000A21B0FBF1F201FB1200CDF8009080B169
:103A10003030C2B205EB560101FB0480C0B2334620
:103A20005946FFF765FF641CE4B2BC42E0D3BDE831
:103A3000F88F05EB560101FB0480C0B233463022FB
:103A4000EEE72DE9F8411E46154688460446079FD5
:103A50000BE03346414620460097FFF749FF082E0A
:103A60000AD004EB5600C4B26D1C2A78A2F12000E3
:103A70005E28EED9BDE8F881A41DE4B2F4E770B584
:103A80000C460546FFF778FC782000F015F8FFF7A4
:103A9000AFFC0CB1402000E0002000F00DF8FFF773
:103AA000A7FC284600F008F8FFF7A2FCBDE870402C
:103AB000FFF784BC704770472DE9F041124F002496
:103AC00005464FF480487E14280601D5012200E007
:103AD000002241463846FEF7A6FDFFF7A5FC01226D
:103AE00031463846FEF79FFDFFF79EFC0022314627
:103AF0003846FEF798FD6806641C050EE4B2082CF3
:103B0000E2D3BDE8F081000000100140FEF796BD51
:103B100030B593B028216846FCF77AFD14210AA835
:103B2000FCF776FD002501200F95109511950104F5
:103B300012958DE8230004904FF4E010CDE90810B1
:103B4000022407946846FEF7BBFF08B172B6FEE791
:103B50000AA90F2081E831004FF48060CDE90D05FE
:103B600002210AA8FEF7CAFE08B172B6FEE74FF4BA
:103B7000004011900F940FA8FEF74AFE002801D0D4
:103B800072B6FEE713B030BD704710B5406A002131
:103B9000C185C184FFF771F910BD70B5446A206812
:103BA000406994F84110C0F3C0100025212904D1C8
:103BB00018B1E584204600F08EF82068406994F83A
:103BC0004210C0F38010222904D118B1E5852046A7
:103BD00000F05AF8606C40F0100060642046FFF777
:103BE0004CF970BD10B50146406A096809684FF08C
:103BF000000289062ED4C28501680C3151E8003FCD
:103C000023F4807341E80034002CF5D101681431AD
:103C100051E8003F23F0010341E80034002CF5D1C6
:103C20000168143151E8003F23F0400341E80034BB
:103C3000002CF5D1202180F84210016B012909D117
:103C400001680C3151E8003F23F0100341E80034D3
:103C5000002CF5D14263016B012902D0FFF71CFB58
:103C600010BD818DFFF7D0F810BD10B5406A01215D
:103C70004163016B012902D0FFF72AFB10BD818D42
:103C80004908FFF7C1F810BD01680C3151E8002F59
:103C900022F4907241E80023002BF5D10168143121
:103CA00051E8002F22F0010241E80023002BF5D15A
:103CB000016B012909D101680C3151E8002F22F074
:103CC000100241E80023002BF5D1202180F842109A
:103CD00000210163704701680C3151E8002F22F088
:103CE000C00241E80023002BF5D1202180F84110CB
:103CF000704708B590F84210222901D0022008BD73
:103D000082684FF480539A4201D1016921B1816ADE
:103D10009A421BD04AB10AE00268816A5268C2F333
:103D200008020A80816A891C08E0026972B102688F
:103D3000526802F07F020A70816A491C8162C18D5B
:103D4000491E0904090CC18503D01BE002685268B2
:103D5000F1E70168CA6822F02002CA600168CA68F7
:103D600022F48072CA6001684A6922F001024A6145
:103D7000202180F8421000214163026B012A03D008
:103D8000FFF78AFA002008BD016301680C3151E891
:103D9000002F22F0100241E80023002BF5D101682A
:103DA0000A68D20602D50A6849680091818DFFF73A
:103DB0002BF8E7E770B5044600680169E26821F472
:103DC0004051114301612169A068084361690843BA
:103DD0002168CA6841F20C639A430243CA602068B2
:103DE0004169A26921F44071114341611E49206873
:103DF000884202D1FEF72EFE01E0FEF71BFE00EB2B
:103E0000C00101EB0012606864218000B2FBF0F396
:103E1000B3FBF1F36FF018067343B2FBF0F5B2FB9E
:103E2000F0F605EB8305322303EB0515B5FBF1F541
:103E3000B6FBF1F605F0F00505EB0615B2FBF0F662
:103E4000B2FBF0F0B0FBF1F06FF01802504306EB5C
:103E5000800003EB0010B0FBF1F0216800F00F00D0
:103E60002844886070BD00000038014038B5816288
:103E700004468285002013466064222284F8422092
:103E8000E56B1B4AAA62E56B1A4AEA62E56B1A4ABD
:103E90002A63E26B50630A462168E06B091DFEF756
:103EA00061FA2068016840680090206948B1206884
:103EB0000C3050E8001F41F4807140E80012002AE5
:103EC000F5D12068143050E8001F41F0010140E8AE
:103ED0000012002AF5D12068143050E8001F41F08C
:103EE000400140E80012002AF5D1002038BD000052
:103EF000E53B00086B3C00089B3B00082DE9F843BC
:103F0000984617460D460446089E24E0701C22D0B1
:103F1000FEF78EFBA0EB0800B0421AD8CEB12068A5
:103F2000C168490717D5802D15D0402D13D00168E1
:103F3000C94309070FD40168002540680090204656
:103F4000FFF7A2FE0820606484F840500120BDE81D
:103F5000F8830320FBE72068006835EA000004D0FE
:103F60000020B842D2D00020F1E70120F9E700009C
:103F700038B5124C20680168C9061AD501680025B9
:103F8000406800902046FEF740FFE06B0068406804
:103F900040F2FF12A0F2FF10404280B2B0F5007F65
:103FA00000D310460649088006490D540348FFF720
:103FB00065F9BDE838400148FEF760BFD400002035
:103FC000240000206C0600200A4910B50868401C37
:103FD0000860094800680268920606D540684A6889
:103FE000C0B2521C4A60FDF7D5FDBDE81040024842
:103FF000FEF744BF0C0000201C010020FEE709076B
:10400000090E002804DB00F1E02080F8001470475E
:1040100000F00F0000F1E02080F8141D70473038E8
:104020000A2801D20120704700207047A8B0002460
:10403000FEF70CFBFFF76CFDFFF7BAFAFFF79AFAF1
:10404000FFF748FAFFF73CFBFFF75AFBFFF76AFA66
:1040500000224FF41061F848FEF7E5FAFFF79EFBE7
:10406000FFF770FBFDF782FDFCF7B2FCFDF73CF9B2
:104070004FF47A7506E0641CE4B22846FEF7AAF90C
:10408000052C03D2FDF7B8F80028F4D0FCF762FF46
:10409000002850D041F288342046FEF79BF9FCF707
:1040A0004BFFFFF74FFB0121E4A0FDF793FA002837
:1040B00042D00021EDA0FDF78DFAF6494FF6FF77CB
:1040C0000D1D0826B0B3A3468A460A20FCF7B0FBB4
:1040D0001FFA80F90A20FCF7D5FB1FFA80F8ED489B
:1040E000001DFCF7ABFDE8780090AB78EAA2202138
:1040F00006A8FCF773F8687800902B78E6A22021D8
:104100000EA8FCF76BF84B46E5A2202116A8FCF799
:1041100065F84346E2A220211EA8FCF75FF8FDF7F0
:1041200019FD0346B84209D0DDA2102102A8FCF710
:1041300055F806E001E0FEE7FEE7FEE700208DF817
:104140000800FEF775FADAF800105446411A59458E
:104150001DD9FCF731FC06A9E8B1D2A0FFF76AF936
:104160000EA9D4A0FFF766F916A9D5A0FFF762F94A
:104170001EA9D5A0FFF75EF99DF8080020B102A99D
:10418000D3A000BFFFF756F9FEF752FA2060FCF704
:1041900007FCB0B152E0D0A0FFF74CF90EA9D1A0B6
:1041A000FFF748F916A9D2A0FFF744F91EA9D2A03B
:1041B000FFF740F99DF808000028E5D002A9D0A03B
:1041C000E0E70020FCF7FEFB26900120FCF7FAFB5D
:1041D00001900220FCF7F6FB00900320FCF7F2FBB5
:1041E0000446A9782698814201DB012200E00022E2
:1041F0004FF480719048FEF716FA0199894501DB6A
:10420000002200E001224FF480518B48FEF70BFAA8
:104210000099884501DD012200E000224FF4006191
:104220008548FEF700FA2878A04201DA012200E072
:1042300000224FF40071B348FEF7F5F9FCF7F6FBE6
:10424000FDF792FAFFF77EFAFCF7B0FB40B1FCF7FE
:10425000ADFB01287ED0FCF7A9FB02287BD09AE1B8
:10426000012400210823A8A208460094FFF7E9FBD7
:10427000FCF7A2FB00284FF0080300946CD0A4A226
:1042800000213220FFF7DDFB0823A3A219460020FE
:104290000094FFF7D6FBFCF783FB00284FF00803E0
:1042A00000947DD09EA208213220FFF7CAFB08238C
:1042B0009DA2102100200094FFF7C3FBCDE900640C
:1042C00004234A4610213220FFF784FB082398A2DA
:1042D000182100200094FFF7B4FBCDE9006404230B
:1042E000424618213220FFF775FB082392A22021B5
:1042F00000200094FFF7A5FBCDE90064AA78022313
:1043000020213220FFF766FB08238DA220214A20BE
:104310000094FFF796FBCDE90064EA7801232021A1
:104320005020FFF757FB082386A220215820009435
:10433000FFF787FB082384A2282100200094FFF7C1
:1043400080FBCDE900642A78022328213220FFF780
:1043500041FB02E01AE11CE130E0082378A22821A9
:104360004A200094FFF76DFBCDE900646A780123D1
:1043700028215020FFF72EFB082375A22821582062
:104380000094FFF75EFB082372A230210020009406
:10439000FFF757FBFDF7DEFB0246B84212D000E004
:1043A0000EE0CDE90064042330213220FFF712FB38
:1043B0000823302169A25A20009408E068A25FE730
:1043C00069A270E708236AA2302132200094FFF727
:1043D00038FB082368A2382100200094FFF731FB46
:1043E0006648CDE900640268052338210F20FFF7F5
:1043F000F1FA082362A2382132200094FFF721FB52
:104400006048CDE900640268042338214120FFF7A9
:10441000E1FA08235CA2382164200094FFF711FB25
:10442000FDF79EFBCDE9006402460323382173208B
:10443000FFF7D0FAAFE00000000801402473797361
:104440002F6455356A5667314C39622F7465737421
:104450002F7468696E672F70726F70657274792F30
:10446000706F73742F7265706C79000024737973A8
:104470002F6455356A5667314C39622F74657374F1
:104480002F7468696E672F70726F70657274792F00
:10449000736574000000002025642E256400000070
:1044A0002564000074656D706572617475726531A4
:1044B0000000000068756D6964697479310000005E
:1044C0006C69676874310000736F696C31000000BB
:1044D000636F32310000000074656D706572617445
:1044E0007572650068756D69646974790000000013
:1044F0006C69676874000000736F696C00000000ED
:10450000636F3200000C0140526567696F6E3A00BC
:10451000524547494F4E32004D6F64653A000000E6
:104520004D414E55414C00004C696768743A00009B
:10453000536F696C3A00000054656D703A000000DA
:104540002E0000004300000048756D3A0000000096
:1045500025000000434F323A2000000070706D00CB
:10456000524547494F4E31004155544F000000001D
:104570002D2D2D2D00000000493A00000C000020D8
:10458000523A0000100000204F3A0000FCF710FCE7
:1045900001E0FCF763FCFFF777F96420FDF71AFFF1
:1045A00093E5010202030405060708090A0B0C0D36
:1045B0000E0F1010010202030405060708090A0B7A
:1045C0000C0D0E0F10100000000000000000010292
:1045D00003040607080900000000010203040000AC
:1045E000000000000000002F00000000070007008E
:1045F00000147F147F1400242A7F2A1200626408AA
:104600001323003649552250000005030000000026
:104610001C224100000041221C000014083E081426
:104620000008083E0808000000A060000008080814
:104630000808000060600000002010080402003E2E
:104640005149453E0000427F4000004261514946C9
:10465000002141454B31001814127F1000274545B9
:104660004539003C4A4949300001710905030036CB
:104670004949493600064949291E000036360000DE
:1046800000005636000000081422410000141414E3
:1046900014140000412214080002015109060032DE
:1046A0004959513E007C1211127C007F494949361C
:1046B000003E41414122007F4141221C007F494987
:1046C0004941007F09090901003E4149497A007FBB
:1046D0000808087F0000417F4100002040413F0161
:1046E000007F08142241007F40404040007F020CC0
:1046F000027F007F0408107F003E4141413E007F61
:1047000009090906003E4151215E007F0919294629
:104710000046494949310001017F0101003F404005
:10472000403F001F2040201F003F4038403F0063B3
:1047300014081463000708700807006151494543D5
:1047400000007F41410000552A552A550000414193
:104750007F0000040201020400404040404000008D
:1047600001020400002054545478007F4844443827
:1047700000384444442000384444487F00385454AE
:10478000541800087E0901020018A4A4A47C007F2C
:10479000080404780000447D4000004080847D00CF
:1047A000007F102844000000417F4000007C041876
:1047B0000478007C0804047800384444443800FC41
:1047C000242424180018242418FC007C080404085D
:1047D00000485454542000043F444020003C4040D2
:1047E000207C001C2040201C003C4030403C004409
:1047F00028102844001CA0A0A07C004464544C4411
:104800001414141414140000000000000000000030
:1048100000000000FC000000000002000000000C8E
:10482000020C020000000000000090D0BCD0BC9040
:104830000003000300001824FE448C00030207025A
:1048400001001824D8B04C80000300010201C038D8
:10485000E438E00001020201020208060000000044
:10486000000000000000000000F804020000000149
:104870000204000204F8000000040201000090603D
:10488000F86090000000010000002020FC202000C3
:104890000000010000000000000000000806000009
:1048A0000000202020202000000000000000000068
:1048B000000000000002000000000080601C0200F8
:1048C000040300000000F8040404F80001020202DE
:1048D00001000008FC000000000203020000188430
:1048E0004424180003020202020008042424D80011
:1048F00001020202010040B088FC800000000003B9
:1049000002003C242424C400010202020100F82415
:10491000242CC0000102020201000C04E41C04006B
:10492000000003000000D8242424D8000102020261
:10493000010038444444F800000302020100000072
:104940001000000000000200000000002000000035
:104950000000060000000020508804020000000053
:104960000102909090909000000000000000000272
:10497000048850200002010000001804C42418001C
:10498000000002000000F804E494F80001020202B2
:10499000020000E09CF0800002030000030204FC1F
:1049A0002424D800020302020100F80404040C00CD
:1049B00001020202010004FC0404F80002030202E6
:1049C000010004FC24740C0002030202030004FC36
:1049D00024740C00020302000000F0080444CC40E0
:1049E00000010202010004FC2020FC04020300007C
:1049F00003020404FC040400020203020200000497
:104A000004FC040406040403000004FC24D00C0489
:104A100002030200030204FC04000000020302027D
:104A20000203FC3CC03CFC0003000300030004FC48
:104A300030C4FC04020302000300F8040404F8007C
:104A400001020202010004FC2424180002030200F7
:104A50000000F8848404F80001020207050004FC49
:104A600024649800020302000302182424448C00EA
:104A70000302020201000C04FC040C000002030209
:104A8000000004FC0000FC04000102020100047CA0
:104A900080E01C040000030000001CE03CE01C005F
:104AA000000300030000049C609C04000203000358
:104AB0000200041CE01C04000002030200000C843D
:104AC000641C04000203020203000000FE02020054
:104AD000000007040400000E30C0000000000001C8
:104AE0000200000202FE00000004040700000004AF
:104AF00002040000000000000000000000000000B0
:104B00000808080808080000020000000000000073
:104B100000000040A0A0C00000010202030204FC4B
:104B20002020C00000030202010000C0202060001D
:104B300000010202020000C02024FC000001020269
:104B4000030200C0A0A0C000000102020200002079
:104B5000F82424040002030202000040A0A0602008
:104B600000070A0A0A0404FC2020C0000203020015
:104B700003020020E4000000000203020000000025
:104B800020E4000008080807000004FC80E0202062
:104B90000203020003020404FC00000002020302FC
:104BA0000200E020E020C00003000300030020E03A
:104BB0002020C00002030200030200C02020C00029
:104BC00000010202010020E02020C000080F0A02BC
:104BD000010000C02020E0000001020A0F0820E0D0
:104BE000402020000203020000000060A0A020007E
:104BF0000002020203000020F82000000000010271
:104C0000020020E00020E00000010202030220E098
:104C1000208060200000030100006080E0806000D0
:104C200000030003000020608060200002030003F6
:104C3000020020E02080602008080701000000201A
:104C4000A0602000000203020200000020DE02003B
:104C5000000000070400000000FF00000000000F3B
:104C600000000002DE200000000407000000020136
:104C70000204040200000000000000000000000028
:104C800000000000000000000000000000F800002C
:104C90000000000000333000000000100C06100C73
:104CA0000600000000000000000040C07840C0780E
:104CB0004000043F04043F040400007088FC0830F6
:104CC0000000001820FF211E0000F008F000E0188E
:104CD000000000211C031E211E0000F00888700047
:104CE00000001E2123241927211010160E00000099
:104CF00000000000000000000000000000E01804B8
:104D00000200000000071820400000020418E00024
:104D100000000040201807000000404080F0804064
:104D200040000202010F01020200000000F000003A
:104D300000000101011F010101000000000000004E
:104D4000000080B0700000000000000000000000C3
:104D5000000000010101010101010000000000004C
:104D60000000003030000000000000000000806003
:104D70001804006018060100000000E01008081088
:104D8000E000000F102020100F00001010F80000AD
:104D900000000020203F2020000000700808088844
:104DA0007000003028242221300000300888884814
:104DB00030000018202020110E000000C02010F844
:104DC000000000070424243F240000F80888880815
:104DD00008000019212020110E0000E0108888181A
:104DE0000000000F112020110E0000380808C838FC
:104DF00008000000003F00000000007088080888DC
:104E00007000001C222121221C0000E01008081064
:104E1000E0000000312222110F00000000C0C0009D
:104E200000000000003030000000000000800000A2
:104E300000000000806000000000000080402010A2
:104E4000080000010204081020004040404040409B
:104E500040000404040404040400000810204080FE
:104E60000000002010080402010000704808080833
:104E7000F0000000003036010000C030C828E81003
:104E8000E0000718272423140B000000C038E000BE
:104E90000000203C23020227382008F88888887008
:104EA0000000203F202020110E00C0300808080814
:104EB0003800071820202010080008F808080810FB
:104EC000E000203F202020100F0008F88888E80824
:104ED0001000203F20202320180008F88888E808C8
:104EE0001000203F200003000000C03008080838F0
:104EF000000007182020221E020008F80800000801
:104F0000F808203F210101213F20000808F8080887
:104F100000000020203F2020000000000808F808C2
:104F20000800C08080807F00000008F888C0281832
:104F30000800203F20012638200008F80800000063
:104F40000000203F20202020300008F8F800F8F86A
:104F50000800203F003F003F200008F830C0000854
:104F6000F808203F200007183F00E010080808104C
:104F7000E0000F10202020100F0008F80808080893
:104F8000F000203F210101010000E0100808081096
:104F9000E0000F18242438504F0008F888888888CB
:104FA0007000203F2000030C3020007088080808A3
:104FB00038000038202121221C00180808F80808B1
:104FC00018000000203F2000000008F8080000083A
:104FD000F808001F202020201F000878880000C843
:104FE0003808000007380E010000F80800F8000833
:104FF000F800033C0700073C03000818688080683D
:10500000180820302C03032C30200838C800C8387A
:1050100008000000203F2000000010080808C838E1
:1050200008002038262120201800000000FE02027F
:1050300002000000007F40404000000C30C0000033
:105040000000000000010638C00000020202FE005D
:105050000000004040407F00000000000402020207
:10506000040000000000000000000000000000003C
:105070000000808080808080808000020204000028
:105080000000000000000000000000008080808020
:1050900000000019242222223F2008F8008080000E
:1050A0000000003F112020110E00000000808080D1
:1050B0000000000E112020201100000000808088D8
:1050C000F800000E112020103F200000808080801A
:1050D0000000001F222222221300008080F0888816
:1050E00088180020203F2020000000008080808061
:1050F0008000006B94949493600008F80080808096
:105100000000203F210000203F20008098980000F0
:1051100000000020203F2020000000000080989820
:10512000000000C08080807F000008F800008080C0
:105130008000203F24022D302000000808F80000E5
:1051400000000020203F20200000808080808080A0
:105150008000203F20003F20003F80800080808032
:105160000000203F210000203F2000008080808040
:105170000000001F202020201F0080800080800071
:10518000000080FFA12020110E0000000080808020
:105190008000000E112020A0FF8080808000808091
:1051A000800020203F2120000100000080808080BE
:1051B00080000033242424241900008080E08080B3
:1051C00000000000001F2020000080800000008000
:1051D0008000001F202020103F2080808000008061
:1051E000808000010E300806010080800080008071
:1051F00080800F300C030C300F0000808000808016
:1052000080000020312E0E31200080808000008040
:10521000808080818E7018060100008080808080F0
:1052200080000021302C2221300000000000807C12
:10523000020200000000003F404000000000FF00AC
:10524000000000000000FF0000000002027C80005F
:1052500000000040403F0000000000060101020283
:105260000404000000000000000000000000000036
:10527000000000000000000000000000000000002E
:10528000000000000000000000000000000000001E
:10529000000000F0F0F0000000000000000000013D
:1052A0007F010000000000000000001C1C1C00002A
:1052B000000000008060301C8C60301C0C0000007E
:1052C00000000000000000000000000000000000DE
:1052D000000000000000000000E00000000000E00E
:1052E00000000086E69F86868686E69F860000018F
:1052F0001F01010101011F010100000080C06020A9
:10530000F820E0C00000000003070C18FF70E181E6
:1053100000000000070F10107F100F0700008060D2
:10532000206080000000E02000000F3020309F70DF
:10533000DC371030C0000000100E030007181018F2
:1053400007000000C02020E0C0000000000080E056
:105350001F38E88703C43C040000070F1810100B27
:10536000070D1010080000808C4C38000000000071
:10537000000000000000000000000000000000002D
:10538000000000000000000000000000000000001D
:1053900080E0300804000000000000FEFF01000073
:1053A0000000000000000000030F1820400000046F
:1053B0000830E0800000000000000000000001FF55
:1053C000FE0000000000004020180F030000000055
:1053D0000000000000000000C000000000000042CB
:1053E00066663C18FF183C6666420000000000003C
:1053F000030000000000000000000000800000002A
:105400000000001010101010FF10101010100000FD
:105410000000000003000000000000000000000089
:10542000000000000000000000000000000000007C
:10543000000000808C4C38000000000000000000DC
:10544000000000000000000000000010101010100C
:1054500010101010100000000000000000000000FC
:10546000000000000000000000000000000000003C
:105470000000000000000000000000001C1C1C00D8
:105480000000000000000000000000000000E03804
:105490000C000000000080701C0300000000006091
:1054A000380E0100000000000000000080C06020F5
:1054B0002060C080000000FEFF010000000001FF2E
:1054C000FE000001070E181010180E070100000062
:1054D000808080C0E000000000000000000000FFAD
:1054E000FF000000000000001010101F1F1010101F
:1054F00000000080402020202060C08000000003C9
:105500000300804020381F070000001C1A191818DB
:105510001818181F00000080C020202060C08000E4
:105520000000000303001010182FE78000000007A0
:105530000F10101010180F070000000000000000EE
:10554000C0E0F000000000C0B088868180FFFF80CE
:105550008000000000000010101F1F10100000004D
:10556000E060606060606060000000003F1008085C
:105570000818F0E0000000070B101010101C0F03BB
:105580000000000080C040202020E0C0000000FC9F
:10559000FF211008080818F0E0000001070C18109F
:1055A0001010080F03000000C0E06060606060E061
:1055B0006000000003000000E01807000000000089
:1055C0000000001F1F00000000000080C0602020BD
:1055D000202060C080000087EF2C1818303068CF82
:1055E000830000070F0810101010180F07000000AC
:1055F000C0C020202020C0800000001F3F6040402D
:10560000402010FFFE0000000C1C101010080F03BB
:10561000000000000000000000000000000000008A
:105620000000000E0E0E0000000000000000001C34
:105630001C1C000000000000000000000000000032
:10564000000000000000000C0C0000000000000042
:1056500000000058380000000000000000000000BA
:10566000008040201000000010284482010000004B
:10567000000000000000000001020408100000000B
:105680000000000000000000000000848484848486
:105690008484848484000000000000000000000076
:1056A000000000001020408000000000000000000A
:1056B00000000000018244281000000010080402CD
:1056C00001000000000000C020201010101030E089
:1056D000C0000003030000F010080C0703000000E6
:1056E00000001C1C1C0000000000000000C0406006
:1056F00020202040C00000FCFF01F00E03C1FE038B
:10570000807F0001070E081111101109040200002A
:10571000000080E0E000000000000000807C4340CA
:10572000477FF880000010181F1000000000131FB2
:105730001C1020E0E02020202060C080000000FF3E
:10574000FF10101010182FE78000101F1F101010EE
:105750001010180F0700000080C04020202020609B
:10576000E00000FCFF01000000000000010000015B
:10577000070E181010100804030020E0E02020207D
:105780002040C080000000FFFF000000000001FF7B
:10579000FE00101F1F10101018080E07010020E057
:1057A000E020202020202060800000FFFF1010104B
:1057B000107C00000000101F1F1010101010101897
:1057C000060020E0E020202020206060800000FF14
:1057D000FF101010107C00000100101F1F100000AF
:1057E000000000000000000080C06020202040E099
:1057F000000000FCFF0100004040C0C1404000012B
:10580000070E181010100F0F000020E0E02000001D
:10581000000020E0E02000FFFF101010101010FF2B
:10582000FF00101F1F1000000000101F1F100000BD
:10583000202020E0E020202000000000000000FFE9
:10584000FF000000000000001010101F1F101010BB
:10585000000000000000202020E0E02020200000C8
:105860000000000000FFFF0000000060E08080807A
:10587000C07F3F00000020E0E020000020A060206A
:10588000200000FFFF30187CE3C000000000101F64
:105890001F10000001131F1C181020E0E020000062
:1058A00000000000000000FFFF00000000000000FA
:1058B0000000101F1F10101010101018060020E01C
:1058C000E0E000000000E0E0E02000FF013FFEC05B
:1058D000E01E01FFFF00101F1000031F0300101F38
:1058E0001F1020E0E0C0000000000020E02000FFCA
:1058F0000003071C78E08000FF00101F100000006C
:105900000000030F1F00000080C060202060C080E6
:10591000000000FEFF010000000000FFFE0000018B
:10592000070E181010180C07010020E0E0202020BE
:10593000202060C0800000FFFF2020202020301F9A
:105940000F00101F1F1000000000000000000000EA
:1059500080C060202060C080000000FEFF010000C9
:10596000000000FFFE000001070E1111133C7C67D0
:10597000210020E0E0202020202060C0800000FFE7
:10598000FF101030F0D0080F0700101F1F1000008C
:1059900000030F1C10100080C06020202020404019
:1059A000E00000070F0C1818303060E08100001F85
:1059B0000C0810101010180F07008060202020E045
:1059C000E020202060800100000000FFFF000000B8
:1059D000000100000000101F1F100000000020E068
:1059E000E020000000000020E02000FFFF00000099
:1059F00000000000FF0000070F1810101010100822
:105A000007002060E0E02000000020E060200000AF
:105A1000077FF88000807C03000000000000071F63
:105A20001C070000000020E0E02000E0E020002053
:105A3000E0200007FFF8E01FFFFCE01F000000006F
:105A4000031F0300011F03000000002060E0A0000E
:105A50000020E0602000000000038F7CF8C60100F9
:105A600000000010181E130001171F1810002060FE
:105A7000E0E02000000020E06020000001073EF888
:105A8000E0180700000000000010101F1F10100099
:105A9000000000806020202020A0E0E02000000026
:105AA0000000C0F03E0F0300000000101C1F171084
:105AB0001010101806000000000000FC040404048C
:105AC00004000000000000FF0000000000000000D3
:105AD0000000007F404040404000000010E0000017
